8=FIX.4.4|9=67|35=A|34=1|49=BLZ001|52=20250314-00:01:30.928|56=MARKET|98=0|108=30|10=056|8=FIX.4.4|9=144|35=D|34=2|49=BLZ001|52=20250314-00:01:38.548|56=MARKET|11=d9aad3ef-338b-460c-8b8d-c4e7a3f7ad18|40=1|44=3|54=1|55=PETR4|60=20250314-00:01:38.546|10=153|8=FIX.4.4|9=144|35=D|34=3|49=BLZ001|52=20250314-00:04:50.548|56=MARKET|11=591ab6a3-121e-4154-bd5b-95a5d754a146|40=1|44=3|54=1|55=PETR4|60=20250314-00:04:50.547|10=099|8=FIX.4.4|9=67|35=A|34=4|49=BLZ001|52=20250314-00:06:05.207|56=MARKET|98=0|108=30|10=056|8=FIX.4.4|9=144|35=D|34=5|49=BLZ001|52=20250314-00:06:33.474|56=MARKET|11=8b57c445-48aa-4b7b-b44e-364e5bf2dab0|40=1|44=3|54=2|55=PETR4|60=20250314-00:06:33.472|10=045|8=FIX.4.4|9=64|35=1|34=6|49=BLZ001|52=20250314-00:06:41.588|56=MARKET|112=TEST|10=044|8=FIX.4.4|9=67|35=A|34=7|49=BLZ001|52=20250314-00:31:43.025|56=MARKET|98=0|108=30|10=057|8=FIX.4.4|9=67|35=A|34=8|49=BLZ001|52=20250314-00:33:51.665|56=MARKET|98=0|108=30|10=069|8=FIX.4.4|9=67|35=A|34=9|49=BLZ001|52=20250314-00:38:17.714|56=MARKET|98=0|108=30|10=072|8=FIX.4.4|9=150|35=D|34=10|49=BLZ001|52=20250314-00:38:39.050|56=MARKET|11=6840260c-24bf-43c7-8efd-2bba3f872d61|38=1|40=1|44=3|54=2|55=PETR4|60=20250314-00:38:39.047|10=223|8=FIX.4.4|9=68|35=A|34=11|49=BLZ001|52=20250314-00:41:04.301|56=MARKET|98=0|108=30|10=096|8=FIX.4.4|9=150|35=D|34=12|49=BLZ001|52=20250314-00:41:17.273|56=MARKET|11=ac8d0e4a-2f96-4f60-8a07-0e35e8673fc9|38=1|40=1|44=3|54=1|55=PETR4|60=20250314-00:41:17.271|10=224|8=FIX.4.4|9=68|35=A|34=13|49=BLZ001|52=20250314-00:42:04.851|56=MARKET|98=0|108=30|10=109|8=FIX.4.4|9=68|35=A|34=14|49=BLZ001|52=20250314-00:42:52.015|56=MARKET|98=0|108=30|10=105|8=FIX.4.4|9=56|35=0|34=15|49=BLZ001|52=20250314-00:43:23.781|56=MARKET|10=070|8=FIX.4.4|9=68|35=A|34=16|49=BLZ001|52=20250314-00:43:34.336|56=MARKET|98=0|108=30|10=114|8=FIX.4.4|9=56|35=0|34=17|49=BLZ001|52=20250314-00:44:04.566|56=MARKET|10=073|8=FIX.4.4|9=150|35=D|34=18|49=BLZ001|52=20250314-00:44:09.226|56=MARKET|11=c5c228fd-2389-4954-a402-d5e652913fff|38=1|40=1|44=3|54=1|55=PETR4|60=20250314-00:44:09.224|10=139|8=FIX.4.4|9=150|35=D|34=19|49=BLZ001|52=20250314-00:44:17.295|56=MARKET|11=005f460f-ac30-4b7a-af2f-96a3d0c791bb|38=1|40=1|44=3|54=1|55=PETR4|60=20250314-00:44:17.295|10=056|8=FIX.4.4|9=150|35=D|34=20|49=BLZ001|52=20250314-00:44:20.459|56=MARKET|11=87969b3c-514c-4371-874b-c699e5cd496d|38=1|40=1|44=3|54=1|55=PETR4|60=20250314-00:44:20.459|10=109|8=FIX.4.4|9=68|35=A|34=21|49=BLZ001|52=20250314-00:44:39.722|56=MARKET|98=0|108=30|10=115|8=FIX.4.4|9=68|35=A|34=22|49=BLZ001|52=20250314-00:45:22.432|56=MARKET|98=0|108=30|10=107|8=FIX.4.4|9=150|35=D|34=23|49=BLZ001|52=20250314-00:45:39.682|56=MARKET|11=95fd0c22-0669-4179-a17b-df20617ae865|38=1|40=1|44=3|54=1|55=PETR4|60=20250314-00:45:39.680|10=100|8=FIX.4.4|9=150|35=D|34=24|49=BLZ001|52=20250314-00:45:57.482|56=MARKET|11=b9f9f15d-d346-4bc6-aa4e-bb9acf74566f|38=1|40=1|44=3|54=1|55=PETR4|60=20250314-00:45:57.482|10=186|8=FIX.4.4|9=150|35=D|34=25|49=BLZ001|52=20250314-00:47:59.051|56=MARKET|11=3e538aed-41be-4f65-99f5-963a97fea169|38=1|40=1|44=3|54=1|55=PETR4|60=20250314-00:47:59.050|10=003|8=FIX.4.4|9=68|35=A|34=26|49=BLZ001|52=20250314-00:48:23.972|56=MARKET|98=0|108=30|10=124|8=FIX.4.4|9=68|35=A|34=27|49=BLZ001|52=20250314-10:06:53.009|56=MARKET|98=0|108=30|10=114|8=FIX.4.4|9=56|35=0|34=28|49=BLZ001|52=20250314-10:07:23.310|56=MARKET|10=063|8=FIX.4.4|9=150|35=D|34=29|49=BLZ001|52=20250314-10:07:26.102|56=MARKET|11=324aa910-3de4-4fff-99a7-9ae895131e44|38=1|40=1|44=3|54=1|55=PETR4|60=20250314-10:07:26.100|10=171|8=FIX.4.4|9=68|35=A|34=30|49=BLZ001|52=20250314-10:11:42.281|56=MARKET|98=0|108=30|10=104|8=FIX.4.4|9=150|35=D|34=31|49=BLZ001|52=20250314-10:11:54.360|56=MARKET|11=0a8935d2-5c16-4576-ae98-6da18fb3ca5c|38=1|40=1|44=3|54=1|55=VALE3|60=20250314-10:11:54.358|10=200|8=FIX.4.4|9=68|35=A|34=32|49=BLZ001|52=20250314-10:21:28.418|56=MARKET|98=0|108=30|10=113|8=FIX.4.4|9=56|35=0|34=33|49=BLZ001|52=20250314-10:21:58.709|56=MARKET|10=075|8=FIX.4.4|9=65|35=1|34=34|49=BLZ001|52=20250314-10:22:04.766|56=MARKET|112=TEST|10=090|8=FIX.4.4|9=65|35=0|34=35|49=BLZ001|52=20250314-10:22:06.458|56=MARKET|112=TEST|10=090|8=FIX.4.4|9=56|35=0|34=36|49=BLZ001|52=20250314-10:22:36.477|56=MARKET|10=077|8=FIX.4.4|9=56|35=0|34=37|49=BLZ001|52=20250314-10:23:06.818|56=MARKET|10=075|8=FIX.4.4|9=56|35=0|34=38|49=BLZ001|52=20250314-10:23:37.106|56=MARKET|10=070|8=FIX.4.4|9=56|35=0|34=39|49=BLZ001|52=20250314-10:24:07.340|56=MARKET|10=069|8=FIX.4.4|9=56|35=0|34=40|49=BLZ001|52=20250314-10:24:37.631|56=MARKET|10=067|8=FIX.4.4|9=56|35=0|34=41|49=BLZ001|52=20250314-10:25:07.905|56=MARKET|10=070|8=FIX.4.4|9=56|35=0|34=42|49=BLZ001|52=20250314-10:25:38.143|56=MARKET|10=069|8=FIX.4.4|9=56|35=0|34=43|49=BLZ001|52=20250314-10:26:08.402|56=MARKET|10=066|8=FIX.4.4|9=56|35=0|34=44|49=BLZ001|52=20250314-10:26:38.658|56=MARKET|10=083|8=FIX.4.4|9=68|35=A|34=45|49=BLZ001|52=20250314-10:49:43.286|56=MARKET|98=0|108=30|10=127|8=FIX.4.4|9=56|35=0|34=46|49=BLZ001|52=20250314-10:50:13.605|56=MARKET|10=067|8=FIX.4.4|9=68|35=A|34=47|49=BLZ001|52=20250314-10:50:30.058|56=MARKET|98=0|108=30|10=114|8=FIX.4.4|9=150|35=D|34=48|49=BLZ001|52=20250314-10:50:45.347|56=MARKET|11=f1507882-3c33-4015-8246-341bc19adfd6|38=1|40=1|44=3|54=2|55=PETR4|60=20250314-10:50:45.345|10=032|8=FIX.4.4|9=150|35=D|34=49|49=BLZ001|52=20250314-10:50:59.796|56=MARKET|11=6a97802b-d355-4659-9c74-a7a0f23d493c|38=1|40=1|44=3|54=2|55=PETR4|60=20250314-10:50:59.796|10=128|8=FIX.4.4|9=65|35=1|34=50|49=BLZ001|52=20250314-10:51:21.875|56=MARKET|112=TEST|10=090|8=FIX.4.4|9=56|35=0|34=51|49=BLZ001|52=20250314-10:51:52.382|56=MARKET|10=069|8=FIX.4.4|9=56|35=0|34=52|49=BLZ001|52=20250314-10:52:22.650|56=MARKET|10=066|8=FIX.4.4|9=150|35=D|34=53|49=BLZ001|52=20250314-10:52:45.902|56=MARKET|11=c673f396-cbe2-4a8c-88d4-b69763fe568a|38=1|40=1|44=3|54=2|55=PETR4|60=20250314-10:52:45.902|10=000|8=FIX.4.4|9=68|35=A|34=54|49=BLZ001|52=20250314-11:56:54.453|56=MARKET|98=0|108=30|10=124|8=FIX.4.4|9=66|35=2|34=55|49=BLZ001|52=20250314-11:56:54.509|56=MARKET|7=52|16=0|10=006|8=FIX.4.4|9=68|35=A|34=56|49=BLZ001|52=20250314-11:59:04.292|56=MARKET|98=0|108=30|10=125|8=FIX.4.4|9=66|35=2|34=57|49=BLZ001|52=20250314-11:59:04.343|56=MARKET|7=52|16=0|10=002|8=FIX.4.4|9=68|35=A|34=58|49=BLZ001|52=20250314-12:01:16.201|56=MARKET|98=0|108=30|10=108|8=FIX.4.4|9=66|35=2|34=59|49=BLZ001|52=20250314-12:01:16.239|56=MARKET|7=52|16=0|10=255|8=FIX.4.4|9=56|35=0|34=60|49=BLZ001|52=20250314-12:01:46.443|56=MARKET|10=067|8=FIX.4.4|9=68|35=A|34=61|49=BLZ001|52=20250314-12:03:02.075|56=MARKET|98=0|108=30|10=108|8=FIX.4.4|9=68|35=A|34=62|49=BLZ001|52=20250314-12:04:03.194|56=MARKET|98=0|108=30|10=113|8=FIX.4.4|9=56|35=0|34=63|49=BLZ001|52=20250314-12:04:33.416|56=MARKET|10=069|8=FIX.4.4|9=68|35=A|34=64|49=BLZ001|52=20250314-12:05:09.581|56=MARKET|98=0|108=30|10=122|8=FIX.4.4|9=145|35=D|34=65|49=BLZ001|52=20250314-12:05:21.733|56=MARKET|11=7bc80694-68a1-4120-a5ae-ef0811115065|38=0|40=1|44=0|54=2|55=|60=20250314-12:05:21.731|10=156|8=FIX.4.4|9=65|35=0|34=66|49=BLZ001|52=20250314-12:05:45.938|56=MARKET|112=TEST|10=103|8=FIX.4.4|9=56|35=0|34=67|49=BLZ001|52=20250314-12:06:16.171|56=MARKET|10=074|8=FIX.4.4|9=56|35=0|34=68|49=BLZ001|52=20250314-12:06:46.380|56=MARKET|10=080|8=FIX.4.4|9=56|35=0|34=69|49=BLZ001|52=20250314-12:07:16.640|56=MARKET|10=078|8=FIX.4.4|9=56|35=0|34=70|49=BLZ001|52=20250314-12:07:46.892|56=MARKET|10=082|8=FIX.4.4|9=68|35=A|34=71|49=BLZ001|52=20250314-12:08:46.391|56=MARKET|98=0|108=30|10=123|8=FIX.4.4|9=145|35=D|34=72|49=BLZ001|52=20250314-12:08:58.370|56=MARKET|11=7f63fc59-2299-48af-bfec-8f81f2c0e8b4|38=0|40=1|44=0|54=2|55=|60=20250314-12:08:58.368|10=001|8=FIX.4.4|9=65|35=0|34=73|49=BLZ001|52=20250314-12:09:22.560|56=MARKET|112=TEST|10=091|8=FIX.4.4|9=68|35=A|34=74|49=BLZ001|52=20250314-12:09:29.813|56=MARKET|98=0|108=30|10=127|8=FIX.4.4|9=145|35=D|34=75|49=BLZ001|52=20250314-12:09:40.801|56=MARKET|11=0550e16c-3ad0-4e64-9817-74fadcd90988|38=0|40=1|44=0|54=2|55=|60=20250314-12:09:40.799|10=044|8=FIX.4.4|9=68|35=A|34=76|49=BLZ001|52=20250314-12:10:17.606|56=MARKET|98=0|108=30|10=118|8=FIX.4.4|9=56|35=0|34=77|49=BLZ001|52=20250314-12:10:47.888|56=MARKET|10=089|8=FIX.4.4|9=68|35=A|34=78|49=BLZ001|52=20250314-12:11:21.759|56=MARKET|98=0|108=30|10=125|8=FIX.4.4|9=56|35=0|34=79|49=BLZ001|52=20250314-12:11:51.983|56=MARKET|10=083|8=FIX.4.4|9=68|35=A|34=80|49=BLZ001|52=20250314-12:12:01.587|56=MARKET|98=0|108=30|10=116|8=FIX.4.4|9=68|35=A|34=81|49=BLZ001|52=20250314-12:26:59.600|56=MARKET|98=0|108=30|10=121|8=FIX.4.4|9=68|35=A|34=82|49=BLZ001|52=20250314-12:27:52.934|56=MARKET|98=0|108=30|10=126|8=FIX.4.4|9=68|35=A|34=83|49=BLZ001|52=20250314-12:59:17.415|56=MARKET|98=0|108=30|10=127|8=FIX.4.4|9=66|35=2|34=84|49=BLZ001|52=20250314-12:59:17.468|56=MARKET|7=77|16=0|10=022|8=FIX.4.4|9=56|35=0|34=85|49=BLZ001|52=20250314-12:59:47.711|56=MARKET|10=086|8=FIX.4.4|9=65|35=1|34=86|49=BLZ001|52=20250314-12:59:53.743|56=MARKET|112=TEST|10=108|8=FIX.4.4|9=68|35=A|34=87|49=BLZ001|52=20250314-13:00:23.452|56=MARKET|98=0|108=30|10=116|8=FIX.4.4|9=150|35=D|34=88|49=BLZ001|52=20250314-13:00:34.080|56=MARKET|11=91cbc3d6-66b6-461f-8330-9cc4ffd45bfb|38=1|40=1|44=3|54=1|55=PETR4|60=20250314-13:00:34.078|10=069|8=FIX.4.4|9=68|35=A|34=89|49=BLZ001|52=20250314-13:18:42.044|56=MARKET|98=0|108=30|10=125|8=FIX.4.4|9=150|35=D|34=90|49=BLZ001|52=20250314-13:18:54.602|56=MARKET|11=943f93d0-0449-4b50-b40d-d8a95ca32081|38=1|40=1|44=3|54=1|55=PETR4|60=20250314-13:18:54.601|10=077|8=FIX.4.4|9=56|35=0|34=91|49=BLZ001|52=20250314-13:19:25.539|56=MARKET|10=084|8=FIX.4.4|9=68|35=A|34=92|49=BLZ001|52=20250314-13:26:14.840|56=MARKET|98=0|108=30|10=121|8=FIX.4.4|9=150|35=D|34=93|49=BLZ001|52=20250314-13:26:25.867|56=MARKET|11=4138cb92-b52a-4172-9acb-4a4dd7d92d02|38=1|40=1|44=1|54=1|55=VALE3|60=20250314-13:26:25.865|10=216|8=FIX.4.4|9=68|35=A|34=94|49=BLZ001|52=20250314-13:26:59.700|56=MARKET|98=0|108=30|10=127|8=FIX.4.4|9=67|35=2|34=95|49=BLZ001|52=20250314-13:26:59.740|56=MARKET|7=102|16=0|10=056|8=FIX.4.4|9=56|35=0|34=96|49=BLZ001|52=20250314-13:27:29.793|56=MARKET|10=094|8=FIX.4.4|9=150|35=D|34=97|49=BLZ001|52=20250314-13:27:38.206|56=MARKET|11=f68ddab5-950a-4b23-9353-d4d605e8fcb5|38=1|40=1|44=3|54=1|55=PETR4|60=20250314-13:27:38.204|10=036|8=FIX.4.4|9=150|35=D|34=98|49=BLZ001|52=20250314-13:27:47.493|56=MARKET|11=a7c5dad0-6adf-44cd-953a-d892161efc1f|38=1|40=1|44=3|54=1|55=PETR4|60=20250314-13:27:47.493|10=192|8=FIX.4.4|9=150|35=D|34=99|49=BLZ001|52=20250314-13:27:48.647|56=MARKET|11=a63513c5-f42c-473e-9f02-fde18f2e9c35|38=1|40=1|44=3|54=1|55=PETR4|60=20250314-13:27:48.647|10=013|8=FIX.4.4|9=151|35=D|34=100|49=BLZ001|52=20250314-13:27:53.071|56=MARKET|11=1cd368ef-8a8c-4fbe-8e2c-a717847e2818|38=1|40=1|44=3|54=1|55=PETR4|60=20250314-13:27:53.071|10=082|8=FIX.4.4|9=151|35=D|34=101|49=BLZ001|52=20250314-13:27:54.371|56=MARKET|11=39a6bfb0-f401-42eb-bda0-b4a98a59274d|38=1|40=1|44=3|54=1|55=PETR4|60=20250314-13:27:54.371|10=105|8=FIX.4.4|9=151|35=D|34=102|49=BLZ001|52=20250314-13:27:59.586|56=MARKET|11=83f718fd-bd36-4334-a5e6-0f38e1a6d0f6|38=1|40=1|44=3|54=1|55=PETR4|60=20250314-13:27:59.586|10=055|8=FIX.4.4|9=151|35=D|34=103|49=BLZ001|52=20250314-13:28:00.422|56=MARKET|11=beb633c4-e910-4e2a-872e-0d0168611fd2|38=1|40=1|44=3|54=1|55=PETR4|60=20250314-13:28:00.422|10=197|8=FIX.4.4|9=151|35=D|34=104|49=BLZ001|52=20250314-13:28:01.617|56=MARKET|11=e44a8e23-9f2a-4918-a90b-f6c7b78f7322|38=1|40=1|44=3|54=1|55=PETR4|60=20250314-13:28:01.617|10=239|8=FIX.4.4|9=151|35=D|34=105|49=BLZ001|52=20250314-13:28:08.273|56=MARKET|11=dd9a31da-7a05-4bc5-a89f-24cfd5153bd0|38=1|40=1|44=3|54=1|55=PETR4|60=20250314-13:28:08.273|10=160|8=FIX.4.4|9=57|35=0|34=106|49=BLZ001|52=20250314-13:28:38.489|56=MARKET|10=138|8=FIX.4.4|9=151|35=D|34=107|49=BLZ001|52=20250314-13:29:02.900|56=MARKET|11=e8b46e17-b82a-444e-bc8c-210b3e910a74|38=1|40=1|44=3|54=1|55=PETR4|60=20250314-13:29:02.900|10=004|8=FIX.4.4|9=151|35=D|34=108|49=BLZ001|52=20250314-13:29:05.341|56=MARKET|11=4766d2dd-d59b-42ae-a582-a4b480c12256|38=1|40=1|44=3|54=1|55=PETR4|60=20250314-13:29:05.341|10=221|8=FIX.4.4|9=151|35=D|34=109|49=BLZ001|52=20250314-13:29:08.123|56=MARKET|11=70687eed-545b-43f5-bcad-f4669b01e8d3|38=1|40=1|44=3|54=1|55=PETR4|60=20250314-13:29:08.123|10=081|8=FIX.4.4|9=151|35=D|34=110|49=BLZ001|52=20250314-13:29:08.563|56=MARKET|11=c8a87228-3cb4-459e-9f4d-ba90f917f443|38=1|40=1|44=3|54=1|55=PETR4|60=20250314-13:29:08.563|10=002|8=FIX.4.4|9=151|35=D|34=111|49=BLZ001|52=20250314-13:29:08.905|56=MARKET|11=0005b1b5-8fe0-4d7f-a8c1-6e593597f767|38=1|40=1|44=3|54=1|55=PETR4|60=20250314-13:29:08.905|10=205|8=FIX.4.4|9=151|35=D|34=112|49=BLZ001|52=20250314-13:29:09.093|56=MARKET|11=dc5dd3e7-44c9-4523-bd93-319038a16790|38=1|40=1|44=3|54=1|55=PETR4|60=20250314-13:29:09.093|10=148|8=FIX.4.4|9=151|35=D|34=113|49=BLZ001|52=20250314-13:29:09.259|56=MARKET|11=0aeb921f-dd5d-48ec-a53e-27e5082c469b|38=1|40=1|44=3|54=1|55=PETR4|60=20250314-13:29:09.259|10=136|8=FIX.4.4|9=151|35=D|34=114|49=BLZ001|52=20250314-13:29:09.417|56=MARKET|11=5d23a860-2845-4a67-aab8-ed562aba178d|38=1|40=1|44=3|54=1|55=PETR4|60=20250314-13:29:09.417|10=027|8=FIX.4.4|9=151|35=D|34=115|49=BLZ001|52=20250314-13:29:09.573|56=MARKET|11=0b4d5387-2c54-42f4-b42a-60e729ac78c8|38=1|40=1|44=3|54=1|55=PETR4|60=20250314-13:29:09.573|10=201|8=FIX.4.4|9=151|35=D|34=116|49=BLZ001|52=20250314-13:29:09.733|56=MARKET|11=063a31a2-4faa-46c5-b290-790ae33dc6f5|38=1|40=1|44=3|54=1|55=PETR4|60=20250314-13:29:09.733|10=019|8=FIX.4.4|9=151|35=D|34=117|49=BLZ001|52=20250314-13:29:09.895|56=MARKET|11=54d2d515-8e80-4c5b-bd0a-993fc5662f47|38=1|40=1|44=3|54=1|55=PETR4|60=20250314-13:29:09.895|10=016|8=FIX.4.4|9=151|35=D|34=118|49=BLZ001|52=20250314-13:29:10.061|56=MARKET|11=5c7f507b-aa40-48ea-a474-b016c81d2acc|38=1|40=1|44=3|54=1|55=PETR4|60=20250314-13:29:10.061|10=086|8=FIX.4.4|9=151|35=D|34=119|49=BLZ001|52=20250314-13:29:10.229|56=MARKET|11=5bdce9fb-fdd9-4b8e-b993-33e90cdd553d|38=1|40=1|44=3|54=1|55=PETR4|60=20250314-13:29:10.229|10=027|8=FIX.4.4|9=151|35=D|34=120|49=BLZ001|52=20250314-13:29:10.383|56=MARKET|11=84d4fc2f-84db-434b-8fca-243b402a7211|38=1|40=1|44=3|54=1|55=PETR4|60=20250314-13:29:10.383|10=003|8=FIX.4.4|9=151|35=D|34=121|49=BLZ001|52=20250314-13:29:10.533|56=MARKET|11=138972e3-bf0a-48a0-b91e-a1f8629dafd1|38=1|40=1|44=3|54=1|55=PETR4|60=20250314-13:29:10.533|10=057|8=FIX.4.4|9=151|35=D|34=122|49=BLZ001|52=20250314-13:29:16.941|56=MARKET|11=f6b3f5c5-0f57-46e7-b144-667b9ebb91d8|38=1|40=1|44=3|54=1|55=PETR4|60=20250314-13:29:16.941|10=050|8=FIX.4.4|9=151|35=D|34=123|49=BLZ001|52=20250314-13:29:17.395|56=MARKET|11=99bec5ac-864a-4fa0-870d-9dd0ec695bde|38=1|40=1|44=3|54=1|55=PETR4|60=20250314-13:29:17.395|10=245|8=FIX.4.4|9=151|35=D|34=124|49=BLZ001|52=20250314-13:29:17.587|56=MARKET|11=f9d6b160-f289-4b43-83e8-d32dac5692b4|38=1|40=1|44=3|54=1|55=PETR4|60=20250314-13:29:17.587|10=011|8=FIX.4.4|9=151|35=D|34=125|49=BLZ001|52=20250314-13:29:17.760|56=MARKET|11=2142cec7-3db3-47d0-a45e-ba3ac88f310b|38=1|40=1|44=3|54=1|55=PETR4|60=20250314-13:29:17.760|10=108|8=FIX.4.4|9=151|35=D|34=126|49=BLZ001|52=20250314-13:29:17.949|56=MARKET|11=267f123f-4f0b-4a6b-82ec-d61a296477b8|38=1|40=1|44=3|54=1|55=PETR4|60=20250314-13:29:17.949|10=009|8=FIX.4.4|9=151|35=D|34=127|49=BLZ001|52=20250314-13:29:18.203|56=MARKET|11=8dd45d51-0a59-46af-ad8f-88d8d5d78c27|38=1|40=1|44=3|54=1|55=PETR4|60=20250314-13:29:18.203|10=095|8=FIX.4.4|9=151|35=D|34=128|49=BLZ001|52=20250314-13:29:18.721|56=MARKET|11=f543e181-8cef-4258-a2de-6f9ecf98401e|38=1|40=1|44=3|54=1|55=PETR4|60=20250314-13:29:18.721|10=100|8=FIX.4.4|9=151|35=D|34=129|49=BLZ001|52=20250314-13:29:18.893|56=MARKET|11=6c08dc1e-4730-43c5-85e4-1964fb0b824e|38=1|40=1|44=3|54=1|55=PETR4|60=20250314-13:29:18.893|10=215|8=FIX.4.4|9=151|35=D|34=130|49=BLZ001|52=20250314-13:29:19.075|56=MARKET|11=6ef36f94-91c0-4ee7-aadb-31109d55ebf9|38=1|40=1|44=3|54=1|55=PETR4|60=20250314-13:29:19.075|10=136|8=FIX.4.4|9=151|35=D|34=131|49=BLZ001|52=20250314-13:29:19.261|56=MARKET|11=9d265ef0-639f-4c0b-b89d-afdb318591e4|38=1|40=1|44=3|54=1|55=PETR4|60=20250314-13:29:19.261|10=088|8=FIX.4.4|9=151|35=D|34=132|49=BLZ001|52=20250314-13:29:19.443|56=MARKET|11=9fb28763-0181-439e-84b6-0f19a0a855cc|38=1|40=1|44=3|54=1|55=PETR4|60=20250314-13:29:19.443|10=151|8=FIX.4.4|9=151|35=D|34=133|49=BLZ001|52=20250314-13:29:19.655|56=MARKET|11=10228481-3658-4a22-8b9e-c31a354d576b|38=1|40=1|44=3|54=1|55=PETR4|60=20250314-13:29:19.655|10=055|8=FIX.4.4|9=151|35=D|34=134|49=BLZ001|52=20250314-13:29:22.065|56=MARKET|11=fbd29c80-010d-4a43-b9a3-35d5bea69ceb|38=1|40=1|44=3|54=1|55=PETR4|60=20250314-13:29:22.065|10=153|8=FIX.4.4|9=151|35=D|34=135|49=BLZ001|52=20250314-13:29:22.479|56=MARKET|11=aecb90f0-8fbc-4529-9f72-c6f00c83566c|38=1|40=1|44=3|54=1|55=PETR4|60=20250314-13:29:22.479|10=098|