20250313-21:43:39.649 : 8=FIX.4.4|9=67|35=A|34=1|49=BLZ001|52=20250313-21:43:39.638|56=MARKET|98=0|108=30|10=071|
20250313-21:44:09.909 : 8=FIX.4.4|9=67|35=A|34=2|49=BLZ001|52=20250313-21:44:09.908|56=MARKET|98=0|108=30|10=070|
20250313-21:44:40.773 : 8=FIX.4.4|9=67|35=A|34=3|49=BLZ001|52=20250313-21:44:40.773|56=MARKET|98=0|108=30|10=066|
20250313-21:45:11.777 : 8=FIX.4.4|9=67|35=A|34=4|49=BLZ001|52=20250313-21:45:11.777|56=MARKET|98=0|108=30|10=070|
20250313-21:47:22.701 : 8=FIX.4.4|9=67|35=A|34=5|49=BLZ001|52=20250313-21:47:22.692|56=MARKET|98=0|108=30|10=071|
20250313-21:55:53.269 : 8=FIX.4.4|9=67|35=A|34=7|49=BLZ001|52=20250313-21:55:53.255|56=MARKET|98=0|108=30|10=071|
20250313-21:55:53.315 : 8=FIX.4.4|9=67|35=A|34=1|49=MARKET|52=20250313-21:55:53.307|56=BLZ001|98=0|108=30|10=063|
20250313-21:55:53.324 : 8=FIX.4.4|9=64|35=2|34=2|49=MARKET|52=20250313-21:55:53.314|56=BLZ001|7=1|16=0|10=142|
20250313-21:55:53.327 : 8=FIX.4.4|9=97|35=4|34=1|43=Y|49=BLZ001|52=20250313-21:55:53.327|56=MARKET|122=20250313-21:55:53.327|36=6|123=Y|10=041|
20250313-21:55:53.328 : 8=FIX.4.4|9=110|35=D|34=6|43=Y|49=BLZ001|52=20250313-21:55:53.326|56=MARKET|122=20250313-21:54:12.852|38=1|44=3|54=1|55=PETR4|10=244|
20250313-21:55:53.328 : 8=FIX.4.4|9=97|35=4|34=7|43=Y|49=BLZ001|52=20250313-21:55:53.328|56=MARKET|122=20250313-21:55:53.328|36=8|123=Y|10=051|
20250313-21:55:53.336 : 8=FIX.4.4|9=103|35=3|34=3|49=MARKET|52=20250313-21:55:53.335|56=BLZ001|45=6|58=Required tag missing|371=11|372=D|373=1|10=230|
20250313-21:56:29.266 : 8=FIX.4.4|9=55|35=0|34=8|49=BLZ001|52=20250313-21:56:29.262|56=MARKET|10=029|
20250313-21:56:29.266 : 8=FIX.4.4|9=55|35=0|34=4|49=MARKET|52=20250313-21:56:23.547|56=BLZ001|10=025|
20250313-21:56:33.578 : 8=FIX.4.4|9=79|35=D|34=9|49=BLZ001|52=20250313-21:56:29.283|56=MARKET|38=1|44=3|54=1|55=PETR4|10=221|
20250313-21:56:35.479 : 8=FIX.4.4|9=103|35=3|34=5|49=MARKET|52=20250313-21:56:33.582|56=BLZ001|45=9|58=Required tag missing|371=11|372=D|373=1|10=238|
20250313-21:56:59.305 : 8=FIX.4.4|9=56|35=0|34=10|49=BLZ001|52=20250313-21:56:59.305|56=MARKET|10=072|
20250313-21:57:04.418 : 8=FIX.4.4|9=55|35=0|34=6|49=MARKET|52=20250313-21:57:04.352|56=BLZ001|10=021|
20250313-21:57:31.102 : 8=FIX.4.4|9=56|35=0|34=11|49=BLZ001|52=20250313-21:57:31.102|56=MARKET|10=059|
20250313-21:57:52.476 : 8=FIX.4.4|9=68|35=A|34=12|49=BLZ001|52=20250313-21:57:52.464|56=MARKET|98=0|108=30|10=119|
20250313-21:58:22.535 : 8=FIX.4.4|9=68|35=A|34=13|49=BLZ001|52=20250313-21:58:22.535|56=MARKET|98=0|108=30|10=117|
20250313-21:58:53.104 : 8=FIX.4.4|9=68|35=A|34=15|49=BLZ001|52=20250313-21:58:53.104|56=MARKET|98=0|108=30|10=115|
20250313-21:59:23.339 : 8=FIX.4.4|9=68|35=A|34=16|49=BLZ001|52=20250313-21:59:23.339|56=MARKET|98=0|108=30|10=124|
20250313-22:00:23.803 : 8=FIX.4.4|9=68|35=A|34=17|49=BLZ001|52=20250313-22:00:23.803|56=MARKET|98=0|108=30|10=108|
20250313-22:00:27.342 : 8=FIX.4.4|9=68|35=A|34=13|49=MARKET|52=20250313-22:00:23.806|56=BLZ001|98=0|108=30|10=107|
20250313-22:00:27.352 : 8=FIX.4.4|9=65|35=2|34=18|49=BLZ001|52=20250313-22:00:27.352|56=MARKET|7=7|16=0|10=198|
20250313-22:00:28.944 : 8=FIX.4.4|9=66|35=2|34=14|49=MARKET|52=20250313-22:00:27.341|56=BLZ001|7=11|16=0|10=236|
20250313-22:00:28.947 : 8=FIX.4.4|9=99|35=4|34=11|43=Y|49=BLZ001|52=20250313-22:00:28.946|56=MARKET|122=20250313-22:00:28.946|36=14|123=Y|10=139|
20250313-22:00:28.947 : 8=FIX.4.4|9=111|35=D|34=14|43=Y|49=BLZ001|52=20250313-22:00:28.946|56=MARKET|122=20250313-21:58:50.079|38=1|44=3|54=1|55=PETR4|10=044|
20250313-22:00:28.947 : 8=FIX.4.4|9=99|35=4|34=15|43=Y|49=BLZ001|52=20250313-22:00:28.947|56=MARKET|122=20250313-22:00:28.947|36=19|123=Y|10=150|
20250313-22:00:30.692 : 8=FIX.4.4|9=98|35=4|34=7|43=Y|49=MARKET|52=20250313-22:00:29.923|56=BLZ001|122=20250313-22:00:29.923|36=15|123=Y|10=088|
20250313-22:00:32.311 : 8=FIX.4.4|9=105|35=3|34=15|49=MARKET|52=20250313-22:00:30.701|56=BLZ001|45=14|58=Required tag missing|371=11|372=D|373=1|10=057|
20250313-22:00:59.537 : 8=FIX.4.4|9=56|35=0|34=19|49=BLZ001|52=20250313-22:00:59.537|56=MARKET|10=078|
20250313-22:01:08.614 : 8=FIX.4.4|9=65|35=1|34=20|49=BLZ001|52=20250313-22:01:08.614|56=MARKET|112=TEST|10=080|
20250313-22:07:16.480 : 8=FIX.4.4|9=68|35=A|34=21|49=BLZ001|52=20250313-22:07:16.468|56=MARKET|98=0|108=30|10=119|
20250313-22:07:16.527 : 8=FIX.4.4|9=68|35=A|34=16|49=MARKET|52=20250313-22:07:16.518|56=BLZ001|98=0|108=30|10=119|
20250313-22:07:16.537 : 8=FIX.4.4|9=66|35=2|34=17|49=MARKET|52=20250313-22:07:16.525|56=BLZ001|7=20|16=0|10=248|
20250313-22:07:16.539 : 8=FIX.4.4|9=99|35=4|34=20|43=Y|49=BLZ001|52=20250313-22:07:16.539|56=MARKET|122=20250313-22:07:16.539|36=22|123=Y|10=142|
20250313-22:07:22.613 : 8=FIX.4.4|9=80|35=D|34=22|49=BLZ001|52=20250313-22:07:22.612|56=MARKET|38=1|44=3|54=1|55=PETR4|10=242|
20250313-22:07:22.618 : 8=FIX.4.4|9=105|35=3|34=18|49=MARKET|52=20250313-22:07:22.618|56=BLZ001|45=22|58=Required tag missing|371=11|372=D|373=1|10=074|
20250313-22:07:35.422 : 8=FIX.4.4|9=80|35=D|34=23|49=BLZ001|52=20250313-22:07:35.422|56=MARKET|38=1|44=3|54=1|55=PETR4|10=246|
20250313-22:07:35.424 : 8=FIX.4.4|9=105|35=3|34=19|49=MARKET|52=20250313-22:07:35.423|56=BLZ001|45=23|58=Required tag missing|371=11|372=D|373=1|10=074|
20250313-22:07:37.900 : 8=FIX.4.4|9=80|35=D|34=24|49=BLZ001|52=20250313-22:07:37.900|56=MARKET|38=1|44=3|54=1|55=PETR4|10=250|
20250313-22:07:37.902 : 8=FIX.4.4|9=105|35=3|34=20|49=MARKET|52=20250313-22:07:37.901|56=BLZ001|45=24|58=Required tag missing|371=11|372=D|373=1|10=070|
20250313-22:07:53.017 : 8=FIX.4.4|9=65|35=1|34=21|49=MARKET|52=20250313-22:07:53.016|56=BLZ001|112=TEST|10=083|
20250313-22:07:53.018 : 8=FIX.4.4|9=65|35=0|34=25|49=BLZ001|52=20250313-22:07:53.018|56=MARKET|112=TEST|10=088|
20250313-22:08:10.250 : 8=FIX.4.4|9=80|35=D|34=26|49=BLZ001|52=20250313-22:08:10.250|56=MARKET|38=1|44=3|54=1|55=PETR4|10=242|
20250313-22:08:10.251 : 8=FIX.4.4|9=105|35=3|34=22|49=MARKET|52=20250313-22:08:10.251|56=BLZ001|45=26|58=Required tag missing|371=11|372=D|373=1|10=064|
20250313-22:08:22.498 : 8=FIX.4.4|9=80|35=D|34=27|49=BLZ001|52=20250313-22:08:22.497|56=MARKET|38=1|44=3|54=1|55=PETR4|10=003|
20250313-22:09:32.971 : 8=FIX.4.4|9=68|35=A|34=28|49=BLZ001|52=20250313-22:09:32.957|56=MARKET|98=0|108=30|10=129|
20250313-22:09:33.018 : 8=FIX.4.4|9=68|35=A|34=23|49=MARKET|52=20250313-22:09:33.009|56=BLZ001|98=0|108=30|10=113|
20250313-22:11:34.411 : 8=FIX.4.4|9=68|35=A|34=29|49=BLZ001|52=20250313-22:11:34.401|56=MARKET|98=0|108=30|10=109|
20250313-22:11:34.429 : 8=FIX.4.4|9=68|35=A|34=25|49=MARKET|52=20250313-22:11:34.421|56=BLZ001|98=0|108=30|10=107|
20250313-22:11:34.439 : 8=FIX.4.4|9=66|35=2|34=30|49=BLZ001|52=20250313-22:11:34.439|56=MARKET|7=24|16=0|10=246|
20250313-22:11:34.441 : 8=FIX.4.4|9=66|35=2|34=26|49=MARKET|52=20250313-22:11:34.421|56=BLZ001|7=27|16=0|10=245|
20250313-22:11:34.443 : 8=FIX.4.4|9=111|35=D|34=27|43=Y|49=BLZ001|52=20250313-22:11:34.443|56=MARKET|122=20250313-22:08:22.497|38=1|44=3|54=1|55=PETR4|10=038|
20250313-22:11:34.444 : 8=FIX.4.4|9=99|35=4|34=28|43=Y|49=BLZ001|52=20250313-22:11:34.444|56=MARKET|122=20250313-22:11:34.444|36=31|123=Y|10=130|
20250313-22:11:34.454 : 8=FIX.4.4|9=99|35=4|34=24|43=Y|49=MARKET|52=20250313-22:11:34.447|56=BLZ001|122=20250313-22:11:34.447|36=27|123=Y|10=137|
20250313-22:11:34.464 : 8=FIX.4.4|9=105|35=3|34=27|49=MARKET|52=20250313-22:11:34.462|56=BLZ001|45=27|58=Required tag missing|371=11|372=D|373=1|10=074|
20250313-22:12:25.686 : 8=FIX.4.4|9=68|35=A|34=31|49=BLZ001|52=20250313-22:12:25.676|56=MARKET|98=0|108=30|10=117|
20250313-22:12:25.706 : 8=FIX.4.4|9=68|35=A|34=28|49=MARKET|52=20250313-22:12:25.696|56=BLZ001|98=0|108=30|10=125|
20250313-22:12:34.176 : 8=FIX.4.4|9=80|35=D|34=32|49=BLZ001|52=20250313-22:12:34.172|56=MARKET|38=1|44=3|54=2|55=PETR4|10=244|
20250313-22:12:34.180 : 8=FIX.4.4|9=105|35=3|34=29|49=MARKET|52=20250313-22:12:34.177|56=BLZ001|45=32|58=Required tag missing|371=11|372=D|373=1|10=076|
20250313-22:13:02.471 : 8=FIX.4.4|9=65|35=1|34=30|49=MARKET|52=20250313-22:13:02.470|56=BLZ001|112=TEST|10=078|
20250313-22:13:02.472 : 8=FIX.4.4|9=65|35=0|34=33|49=BLZ001|52=20250313-22:13:02.471|56=MARKET|112=TEST|10=081|
20250313-22:13:32.728 : 8=FIX.4.4|9=56|35=0|34=34|49=BLZ001|52=20250313-22:13:32.728|56=MARKET|10=072|
20250313-22:13:32.738 : 8=FIX.4.4|9=56|35=0|34=31|49=MARKET|52=20250313-22:13:32.737|56=BLZ001|10=069|
20250313-22:14:02.960 : 8=FIX.4.4|9=56|35=0|34=35|49=BLZ001|52=20250313-22:14:02.960|56=MARKET|10=069|
20250313-22:14:02.960 : 8=FIX.4.4|9=56|35=0|34=32|49=MARKET|52=20250313-22:14:02.960|56=BLZ001|10=066|
20250313-22:44:08.138 : 8=FIX.4.4|9=68|35=A|34=36|49=BLZ001|52=20250313-22:44:08.125|56=MARKET|98=0|108=30|10=117|
20250313-22:44:08.214 : 8=FIX.4.4|9=68|35=A|34=33|49=MARKET|52=20250313-22:44:08.207|56=BLZ001|98=0|108=30|10=115|
20250313-22:44:47.170 : 8=FIX.4.4|9=65|35=1|34=37|49=BLZ001|52=20250313-22:44:47.170|56=MARKET|112=TEST|10=095|
20250313-22:44:47.170 : 8=FIX.4.4|9=56|35=0|34=34|49=MARKET|52=20250313-22:44:38.477|56=BLZ001|10=083|
20250313-22:44:47.171 : 8=FIX.4.4|9=65|35=1|34=35|49=MARKET|52=20250313-22:44:44.526|56=BLZ001|112=TEST|10=095|
20250313-22:44:47.171 : 8=FIX.4.4|9=80|35=D|34=38|49=BLZ001|52=20250313-22:44:47.170|56=MARKET|38=1|44=3|54=1|55=PETR4|10=000|
20250313-22:44:47.171 : 8=FIX.4.4|9=65|35=0|34=39|49=BLZ001|52=20250313-22:44:47.171|56=MARKET|112=TEST|10=097|
20250313-22:44:47.180 : 8=FIX.4.4|9=65|35=0|34=36|49=MARKET|52=20250313-22:44:47.179|56=BLZ001|112=TEST|10=102|
20250313-22:44:47.184 : 8=FIX.4.4|9=105|35=3|34=37|49=MARKET|52=20250313-22:44:47.183|56=BLZ001|45=38|58=Required tag missing|371=11|372=D|373=1|10=087|
20250313-22:45:17.407 : 8=FIX.4.4|9=56|35=0|34=40|49=BLZ001|52=20250313-22:45:17.407|56=MARKET|10=071|
20250313-22:45:17.407 : 8=FIX.4.4|9=56|35=0|34=38|49=MARKET|52=20250313-22:45:17.406|56=BLZ001|10=077|
20250313-22:51:12.108 : 8=FIX.4.4|9=68|35=A|34=41|49=BLZ001|52=20250313-22:51:12.097|56=MARKET|98=0|108=30|10=114|
20250313-22:51:12.128 : 8=FIX.4.4|9=68|35=A|34=39|49=MARKET|52=20250313-22:51:12.118|56=BLZ001|98=0|108=30|10=115|
20250313-22:51:22.413 : 8=FIX.4.4|9=140|35=D|34=42|49=BLZ001|52=20250313-22:51:22.412|56=MARKET|11=83843562-36b4-427f-aa44-8cff072d21d8|40=1|54=1|55=PETR4|60=20250313-22:51:20.336|10=147|
20250314-00:01:30.939 : 8=FIX.4.4|9=67|35=A|34=1|49=BLZ001|52=20250314-00:01:30.928|56=MARKET|98=0|108=30|10=056|
20250314-00:01:30.978 : 8=FIX.4.4|9=67|35=A|34=1|49=MARKET|52=20250314-00:01:30.971|56=BLZ001|98=0|108=30|10=054|
20250314-00:01:38.549 : 8=FIX.4.4|9=144|35=D|34=2|49=BLZ001|52=20250314-00:01:38.548|56=MARKET|11=d9aad3ef-338b-460c-8b8d-c4e7a3f7ad18|40=1|44=3|54=1|55=PETR4|60=20250314-00:01:38.546|10=153|
20250314-00:04:50.548 : 8=FIX.4.4|9=144|35=D|34=3|49=BLZ001|52=20250314-00:04:50.548|56=MARKET|11=591ab6a3-121e-4154-bd5b-95a5d754a146|40=1|44=3|54=1|55=PETR4|60=20250314-00:04:50.547|10=099|
20250314-00:06:05.221 : 8=FIX.4.4|9=67|35=A|34=4|49=BLZ001|52=20250314-00:06:05.207|56=MARKET|98=0|108=30|10=056|
20250314-00:06:05.260 : 8=FIX.4.4|9=67|35=A|34=2|49=MARKET|52=20250314-00:06:05.252|56=BLZ001|98=0|108=30|10=054|
20250314-00:06:05.270 : 8=FIX.4.4|9=64|35=2|34=3|49=MARKET|52=20250314-00:06:05.258|56=BLZ001|7=2|16=0|10=142|
20250314-00:06:05.272 : 8=FIX.4.4|9=175|35=D|34=2|43=Y|49=BLZ001|52=20250314-00:06:05.272|56=MARKET|122=20250314-00:01:38.548|11=d9aad3ef-338b-460c-8b8d-c4e7a3f7ad18|40=1|44=3|54=1|55=PETR4|60=20250314-00:01:38.546|10=148|
20250314-00:06:05.273 : 8=FIX.4.4|9=175|35=D|34=3|43=Y|49=BLZ001|52=20250314-00:06:05.272|56=MARKET|122=20250314-00:04:50.548|11=591ab6a3-121e-4154-bd5b-95a5d754a146|40=1|44=3|54=1|55=PETR4|60=20250314-00:04:50.547|10=094|
20250314-00:06:05.273 : 8=FIX.4.4|9=97|35=4|34=4|43=Y|49=BLZ001|52=20250314-00:06:05.273|56=MARKET|122=20250314-00:06:05.273|36=5|123=Y|10=025|
20250314-00:06:33.475 : 8=FIX.4.4|9=144|35=D|34=5|49=BLZ001|52=20250314-00:06:33.474|56=MARKET|11=8b57c445-48aa-4b7b-b44e-364e5bf2dab0|40=1|44=3|54=2|55=PETR4|60=20250314-00:06:33.472|10=045|
20250314-00:06:41.589 : 8=FIX.4.4|9=64|35=1|34=6|49=BLZ001|52=20250314-00:06:41.588|56=MARKET|112=TEST|10=044|
20250314-00:31:43.037 : 8=FIX.4.4|9=67|35=A|34=7|49=BLZ001|52=20250314-00:31:43.025|56=MARKET|98=0|108=30|10=057|
20250314-00:31:43.074 : 8=FIX.4.4|9=67|35=A|34=4|49=MARKET|52=20250314-00:31:43.067|56=BLZ001|98=0|108=30|10=060|
20250314-00:31:43.083 : 8=FIX.4.4|9=64|35=2|34=5|49=MARKET|52=20250314-00:31:43.072|56=BLZ001|7=5|16=0|10=141|
20250314-00:31:43.085 : 8=FIX.4.4|9=175|35=D|34=5|43=Y|49=BLZ001|52=20250314-00:31:43.084|56=MARKET|122=20250314-00:06:33.474|11=8b57c445-48aa-4b7b-b44e-364e5bf2dab0|40=1|44=3|54=2|55=PETR4|60=20250314-00:06:33.472|10=041|
20250314-00:31:43.085 : 8=FIX.4.4|9=97|35=4|34=6|43=Y|49=BLZ001|52=20250314-00:31:43.085|56=MARKET|122=20250314-00:31:43.085|36=8|123=Y|10=032|
20250314-00:33:51.677 : 8=FIX.4.4|9=67|35=A|34=8|49=BLZ001|52=20250314-00:33:51.665|56=MARKET|98=0|108=30|10=069|
20250314-00:33:51.721 : 8=FIX.4.4|9=67|35=A|34=6|49=MARKET|52=20250314-00:33:51.711|56=BLZ001|98=0|108=30|10=059|
20250314-00:33:51.733 : 8=FIX.4.4|9=64|35=2|34=7|49=MARKET|52=20250314-00:33:51.718|56=BLZ001|7=5|16=0|10=151|
20250314-00:33:51.736 : 8=FIX.4.4|9=175|35=D|34=5|43=Y|49=BLZ001|52=20250314-00:33:51.735|56=MARKET|122=20250314-00:06:33.474|11=8b57c445-48aa-4b7b-b44e-364e5bf2dab0|40=1|44=3|54=2|55=PETR4|60=20250314-00:06:33.472|10=045|
20250314-00:33:51.736 : 8=FIX.4.4|9=97|35=4|34=6|43=Y|49=BLZ001|52=20250314-00:33:51.736|56=MARKET|122=20250314-00:33:51.736|36=9|123=Y|10=041|
20250314-00:38:17.726 : 8=FIX.4.4|9=67|35=A|34=9|49=BLZ001|52=20250314-00:38:17.714|56=MARKET|98=0|108=30|10=072|
20250314-00:38:17.766 : 8=FIX.4.4|9=67|35=A|34=8|49=MARKET|52=20250314-00:38:17.758|56=BLZ001|98=0|108=30|10=079|
20250314-00:38:17.775 : 8=FIX.4.4|9=64|35=2|34=9|49=MARKET|52=20250314-00:38:17.764|56=BLZ001|7=5|16=0|10=161|
20250314-00:38:17.777 : 8=FIX.4.4|9=175|35=D|34=5|43=Y|49=BLZ001|52=20250314-00:38:17.776|56=MARKET|122=20250314-00:06:33.474|11=8b57c445-48aa-4b7b-b44e-364e5bf2dab0|40=1|44=3|54=2|55=PETR4|60=20250314-00:06:33.472|10=057|
20250314-00:38:17.778 : 8=FIX.4.4|9=98|35=4|34=6|43=Y|49=BLZ001|52=20250314-00:38:17.778|56=MARKET|122=20250314-00:38:17.778|36=10|123=Y|10=108|
20250314-00:38:30.948 : 8=FIX.4.4|9=113|35=j|34=10|49=MARKET|52=20250314-00:38:30.946|56=BLZ001|45=5|58=Conditionally Required Field Missing|372=D|380=5|10=021|
20250314-00:38:39.051 : 8=FIX.4.4|9=150|35=D|34=10|49=BLZ001|52=20250314-00:38:39.050|56=MARKET|11=6840260c-24bf-43c7-8efd-2bba3f872d61|38=1|40=1|44=3|54=2|55=PETR4|60=20250314-00:38:39.047|10=223|
20250314-00:41:04.321 : 8=FIX.4.4|9=68|35=A|34=11|49=BLZ001|52=20250314-00:41:04.301|56=MARKET|98=0|108=30|10=096|
20250314-00:41:04.359 : 8=FIX.4.4|9=68|35=A|34=11|49=MARKET|52=20250314-00:41:04.353|56=BLZ001|98=0|108=30|10=103|
20250314-00:41:04.368 : 8=FIX.4.4|9=66|35=2|34=12|49=MARKET|52=20250314-00:41:04.358|56=BLZ001|7=10|16=0|10=238|
20250314-00:41:04.370 : 8=FIX.4.4|9=181|35=D|34=10|43=Y|49=BLZ001|52=20250314-00:41:04.369|56=MARKET|122=20250314-00:38:39.050|11=6840260c-24bf-43c7-8efd-2bba3f872d61|38=1|40=1|44=3|54=2|55=PETR4|60=20250314-00:38:39.047|10=223|
20250314-00:41:04.370 : 8=FIX.4.4|9=99|35=4|34=11|43=Y|49=BLZ001|52=20250314-00:41:04.370|56=MARKET|122=20250314-00:41:04.370|36=12|123=Y|10=111|
20250314-00:41:17.274 : 8=FIX.4.4|9=150|35=D|34=12|49=BLZ001|52=20250314-00:41:17.273|56=MARKET|11=ac8d0e4a-2f96-4f60-8a07-0e35e8673fc9|38=1|40=1|44=3|54=1|55=PETR4|60=20250314-00:41:17.271|10=224|
20250314-00:42:04.862 : 8=FIX.4.4|9=68|35=A|34=13|49=BLZ001|52=20250314-00:42:04.851|56=MARKET|98=0|108=30|10=109|
20250314-00:42:04.899 : 8=FIX.4.4|9=68|35=A|34=13|49=MARKET|52=20250314-00:42:04.893|56=BLZ001|98=0|108=30|10=115|
20250314-00:42:04.908 : 8=FIX.4.4|9=66|35=2|34=14|49=MARKET|52=20250314-00:42:04.898|56=BLZ001|7=12|16=0|10=252|
20250314-00:42:04.910 : 8=FIX.4.4|9=181|35=D|34=12|43=Y|49=BLZ001|52=20250314-00:42:04.909|56=MARKET|122=20250314-00:41:17.273|11=ac8d0e4a-2f96-4f60-8a07-0e35e8673fc9|38=1|40=1|44=3|54=1|55=PETR4|60=20250314-00:41:17.271|10=225|
20250314-00:42:04.910 : 8=FIX.4.4|9=99|35=4|34=13|43=Y|49=BLZ001|52=20250314-00:42:04.910|56=MARKET|122=20250314-00:42:04.910|36=14|123=Y|10=117|
20250314-00:42:52.026 : 8=FIX.4.4|9=68|35=A|34=14|49=BLZ001|52=20250314-00:42:52.015|56=MARKET|98=0|108=30|10=105|
20250314-00:42:52.058 : 8=FIX.4.4|9=68|35=A|34=15|49=MARKET|52=20250314-00:42:52.052|56=BLZ001|98=0|108=30|10=107|
20250314-00:42:52.068 : 8=FIX.4.4|9=66|35=2|34=16|49=MARKET|52=20250314-00:42:52.057|56=BLZ001|7=12|16=0|10=244|
20250314-00:42:52.070 : 8=FIX.4.4|9=181|35=D|34=12|43=Y|49=BLZ001|52=20250314-00:42:52.069|56=MARKET|122=20250314-00:41:17.273|11=ac8d0e4a-2f96-4f60-8a07-0e35e8673fc9|38=1|40=1|44=3|54=1|55=PETR4|60=20250314-00:41:17.271|10=225|
20250314-00:42:52.070 : 8=FIX.4.4|9=99|35=4|34=13|43=Y|49=BLZ001|52=20250314-00:42:52.070|56=MARKET|122=20250314-00:42:52.070|36=15|123=Y|10=118|
20250314-00:43:23.782 : 8=FIX.4.4|9=56|35=0|34=15|49=BLZ001|52=20250314-00:43:23.781|56=MARKET|10=070|
20250314-00:43:34.349 : 8=FIX.4.4|9=68|35=A|34=16|49=BLZ001|52=20250314-00:43:34.336|56=MARKET|98=0|108=30|10=114|
20250314-00:43:34.371 : 8=FIX.4.4|9=68|35=A|34=17|49=MARKET|52=20250314-00:43:34.360|56=BLZ001|98=0|108=30|10=112|
20250314-00:43:34.384 : 8=FIX.4.4|9=66|35=2|34=18|49=MARKET|52=20250314-00:43:34.366|56=BLZ001|7=12|16=0|10=250|
20250314-00:43:34.387 : 8=FIX.4.4|9=181|35=D|34=12|43=Y|49=BLZ001|52=20250314-00:43:34.386|56=MARKET|122=20250314-00:41:17.273|11=ac8d0e4a-2f96-4f60-8a07-0e35e8673fc9|38=1|40=1|44=3|54=1|55=PETR4|60=20250314-00:41:17.271|10=228|
20250314-00:43:34.388 : 8=FIX.4.4|9=99|35=4|34=13|43=Y|49=BLZ001|52=20250314-00:43:34.388|56=MARKET|122=20250314-00:43:34.388|36=17|123=Y|10=146|
20250314-00:44:04.566 : 8=FIX.4.4|9=56|35=0|34=17|49=BLZ001|52=20250314-00:44:04.566|56=MARKET|10=073|
20250314-00:44:09.227 : 8=FIX.4.4|9=150|35=D|34=18|49=BLZ001|52=20250314-00:44:09.226|56=MARKET|11=c5c228fd-2389-4954-a402-d5e652913fff|38=1|40=1|44=3|54=1|55=PETR4|60=20250314-00:44:09.224|10=139|
20250314-00:44:17.296 : 8=FIX.4.4|9=150|35=D|34=19|49=BLZ001|52=20250314-00:44:17.295|56=MARKET|11=005f460f-ac30-4b7a-af2f-96a3d0c791bb|38=1|40=1|44=3|54=1|55=PETR4|60=20250314-00:44:17.295|10=056|
20250314-00:44:20.459 : 8=FIX.4.4|9=150|35=D|34=20|49=BLZ001|52=20250314-00:44:20.459|56=MARKET|11=87969b3c-514c-4371-874b-c699e5cd496d|38=1|40=1|44=3|54=1|55=PETR4|60=20250314-00:44:20.459|10=109|
20250314-00:44:39.733 : 8=FIX.4.4|9=68|35=A|34=21|49=BLZ001|52=20250314-00:44:39.722|56=MARKET|98=0|108=30|10=115|
20250314-00:44:39.766 : 8=FIX.4.4|9=68|35=A|34=19|49=MARKET|52=20250314-00:44:39.759|56=BLZ001|98=0|108=30|10=132|
20250314-00:44:39.775 : 8=FIX.4.4|9=66|35=2|34=20|49=MARKET|52=20250314-00:44:39.764|56=BLZ001|7=12|16=0|10=251|
20250314-00:44:39.777 : 8=FIX.4.4|9=181|35=D|34=12|43=Y|49=BLZ001|52=20250314-00:44:39.777|56=MARKET|122=20250314-00:41:17.273|11=ac8d0e4a-2f96-4f60-8a07-0e35e8673fc9|38=1|40=1|44=3|54=1|55=PETR4|60=20250314-00:41:17.271|10=238|
20250314-00:44:39.778 : 8=FIX.4.4|9=99|35=4|34=13|43=Y|49=BLZ001|52=20250314-00:44:39.778|56=MARKET|122=20250314-00:44:39.778|36=18|123=Y|10=165|
20250314-00:44:39.778 : 8=FIX.4.4|9=181|35=D|34=18|43=Y|49=BLZ001|52=20250314-00:44:39.778|56=MARKET|122=20250314-00:44:09.226|11=c5c228fd-2389-4954-a402-d5e652913fff|38=1|40=1|44=3|54=1|55=PETR4|60=20250314-00:44:09.224|10=154|
20250314-00:44:39.778 : 8=FIX.4.4|9=181|35=D|34=19|43=Y|49=BLZ001|52=20250314-00:44:39.778|56=MARKET|122=20250314-00:44:17.295|11=005f460f-ac30-4b7a-af2f-96a3d0c791bb|38=1|40=1|44=3|54=1|55=PETR4|60=20250314-00:44:17.295|10=071|
20250314-00:44:39.778 : 8=FIX.4.4|9=181|35=D|34=20|43=Y|49=BLZ001|52=20250314-00:44:39.778|56=MARKET|122=20250314-00:44:20.459|11=87969b3c-514c-4371-874b-c699e5cd496d|38=1|40=1|44=3|54=1|55=PETR4|60=20250314-00:44:20.459|10=124|
20250314-00:44:39.778 : 8=FIX.4.4|9=99|35=4|34=21|43=Y|49=BLZ001|52=20250314-00:44:39.778|56=MARKET|122=20250314-00:44:39.778|36=22|123=Y|10=159|
20250314-00:45:22.445 : 8=FIX.4.4|9=68|35=A|34=22|49=BLZ001|52=20250314-00:45:22.432|56=MARKET|98=0|108=30|10=107|
20250314-00:45:22.479 : 8=FIX.4.4|9=68|35=A|34=21|49=MARKET|52=20250314-00:45:22.472|56=BLZ001|98=0|108=30|10=110|
20250314-00:45:39.683 : 8=FIX.4.4|9=150|35=D|34=23|49=BLZ001|52=20250314-00:45:39.682|56=MARKET|11=95fd0c22-0669-4179-a17b-df20617ae865|38=1|40=1|44=3|54=1|55=PETR4|60=20250314-00:45:39.680|10=100|
20250314-00:45:55.167 : 8=FIX.4.4|9=56|35=0|34=22|49=MARKET|52=20250314-00:45:55.166|56=BLZ001|10=072|
20250314-00:45:57.482 : 8=FIX.4.4|9=150|35=D|34=24|49=BLZ001|52=20250314-00:45:57.482|56=MARKET|11=b9f9f15d-d346-4bc6-aa4e-bb9acf74566f|38=1|40=1|44=3|54=1|55=PETR4|60=20250314-00:45:57.482|10=186|
20250314-00:48:23.972 : 8=FIX.4.4|9=68|35=A|34=26|49=BLZ001|52=20250314-00:48:23.972|56=MARKET|98=0|108=30|10=124|
20250314-00:48:24.004 : 8=FIX.4.4|9=68|35=A|34=23|49=MARKET|52=20250314-00:48:24.000|56=BLZ001|98=0|108=30|10=104|
20250314-00:48:24.005 : 8=FIX.4.4|9=66|35=2|34=24|49=MARKET|52=20250314-00:48:24.005|56=BLZ001|7=24|16=0|10=244|
20250314-00:48:24.008 : 8=FIX.4.4|9=181|35=D|34=24|43=Y|49=BLZ001|52=20250314-00:48:24.007|56=MARKET|122=20250314-00:45:57.482|11=b9f9f15d-d346-4bc6-aa4e-bb9acf74566f|38=1|40=1|44=3|54=1|55=PETR4|60=20250314-00:45:57.482|10=184|
20250314-00:48:24.008 : 8=FIX.4.4|9=181|35=D|34=25|43=Y|49=BLZ001|52=20250314-00:48:24.008|56=MARKET|122=20250314-00:47:59.051|11=3e538aed-41be-4f65-99f5-963a97fea169|38=1|40=1|44=3|54=1|55=PETR4|60=20250314-00:47:59.050|10=002|
20250314-00:48:24.009 : 8=FIX.4.4|9=99|35=4|34=26|43=Y|49=BLZ001|52=20250314-00:48:24.008|56=MARKET|122=20250314-00:48:24.008|36=27|123=Y|10=137|
20250314-10:06:53.022 : 8=FIX.4.4|9=68|35=A|34=27|49=BLZ001|52=20250314-10:06:53.009|56=MARKET|98=0|108=30|10=114|
20250314-10:06:53.067 : 8=FIX.4.4|9=68|35=A|34=25|49=MARKET|52=20250314-10:06:53.059|56=BLZ001|98=0|108=30|10=117|
20250314-10:06:53.080 : 8=FIX.4.4|9=66|35=2|34=26|49=MARKET|52=20250314-10:06:53.066|56=BLZ001|7=24|16=0|10=250|
20250314-10:06:53.083 : 8=FIX.4.4|9=181|35=D|34=24|43=Y|49=BLZ001|52=20250314-10:06:53.082|56=MARKET|122=20250314-00:45:57.482|11=b9f9f15d-d346-4bc6-aa4e-bb9acf74566f|38=1|40=1|44=3|54=1|55=PETR4|60=20250314-00:45:57.482|10=184|
20250314-10:06:53.084 : 8=FIX.4.4|9=181|35=D|34=25|43=Y|49=BLZ001|52=20250314-10:06:53.084|56=MARKET|122=20250314-00:47:59.051|11=3e538aed-41be-4f65-99f5-963a97fea169|38=1|40=1|44=3|54=1|55=PETR4|60=20250314-00:47:59.050|10=003|
20250314-10:06:53.084 : 8=FIX.4.4|9=99|35=4|34=26|43=Y|49=BLZ001|52=20250314-10:06:53.084|56=MARKET|122=20250314-10:06:53.084|36=28|123=Y|10=140|
20250314-10:07:23.310 : 8=FIX.4.4|9=56|35=0|34=28|49=BLZ001|52=20250314-10:07:23.310|56=MARKET|10=063|
20250314-10:07:23.313 : 8=FIX.4.4|9=56|35=0|34=27|49=MARKET|52=20250314-10:07:23.312|56=BLZ001|10=064|
20250314-10:07:26.103 : 8=FIX.4.4|9=150|35=D|34=29|49=BLZ001|52=20250314-10:07:26.102|56=MARKET|11=324aa910-3de4-4fff-99a7-9ae895131e44|38=1|40=1|44=3|54=1|55=PETR4|60=20250314-10:07:26.100|10=171|
20250314-10:11:42.295 : 8=FIX.4.4|9=68|35=A|34=30|49=BLZ001|52=20250314-10:11:42.281|56=MARKET|98=0|108=30|10=104|
20250314-10:11:42.347 : 8=FIX.4.4|9=68|35=A|34=28|49=MARKET|52=20250314-10:11:42.338|56=BLZ001|98=0|108=30|10=114|
20250314-10:11:42.357 : 8=FIX.4.4|9=66|35=2|34=29|49=MARKET|52=20250314-10:11:42.345|56=BLZ001|7=29|16=0|10=252|
20250314-10:11:42.360 : 8=FIX.4.4|9=181|35=D|34=29|43=Y|49=BLZ001|52=20250314-10:11:42.359|56=MARKET|122=20250314-10:07:26.102|11=324aa910-3de4-4fff-99a7-9ae895131e44|38=1|40=1|44=3|54=1|55=PETR4|60=20250314-10:07:26.100|10=170|
20250314-10:11:42.361 : 8=FIX.4.4|9=99|35=4|34=30|43=Y|49=BLZ001|52=20250314-10:11:42.361|56=MARKET|122=20250314-10:11:42.361|36=31|123=Y|10=113|
20250314-10:11:54.361 : 8=FIX.4.4|9=150|35=D|34=31|49=BLZ001|52=20250314-10:11:54.360|56=MARKET|11=0a8935d2-5c16-4576-ae98-6da18fb3ca5c|38=1|40=1|44=3|54=1|55=VALE3|60=20250314-10:11:54.358|10=200|
20250314-10:21:28.429 : 8=FIX.4.4|9=68|35=A|34=32|49=BLZ001|52=20250314-10:21:28.418|56=MARKET|98=0|108=30|10=113|
20250314-10:21:28.463 : 8=FIX.4.4|9=68|35=A|34=30|49=MARKET|52=20250314-10:21:28.456|56=BLZ001|98=0|108=30|10=113|
20250314-10:21:28.472 : 8=FIX.4.4|9=66|35=2|34=31|49=MARKET|52=20250314-10:21:28.461|56=BLZ001|7=31|16=0|10=242|
20250314-10:21:28.474 : 8=FIX.4.4|9=181|35=D|34=31|43=Y|49=BLZ001|52=20250314-10:21:28.474|56=MARKET|122=20250314-10:11:54.360|11=0a8935d2-5c16-4576-ae98-6da18fb3ca5c|38=1|40=1|44=3|54=1|55=VALE3|60=20250314-10:11:54.358|10=202|
20250314-10:21:28.475 : 8=FIX.4.4|9=99|35=4|34=32|43=Y|49=BLZ001|52=20250314-10:21:28.475|56=MARKET|122=20250314-10:21:28.475|36=33|123=Y|10=139|
20250314-10:21:58.709 : 8=FIX.4.4|9=56|35=0|34=33|49=BLZ001|52=20250314-10:21:58.709|56=MARKET|10=075|
20250314-10:22:04.766 : 8=FIX.4.4|9=65|35=1|34=34|49=BLZ001|52=20250314-10:22:04.766|56=MARKET|112=TEST|10=090|
20250314-10:22:06.458 : 8=FIX.4.4|9=65|35=1|34=32|49=MARKET|52=20250314-10:22:06.456|56=BLZ001|112=TEST|10=086|
20250314-10:22:06.458 : 8=FIX.4.4|9=65|35=0|34=35|49=BLZ001|52=20250314-10:22:06.458|56=MARKET|112=TEST|10=090|
20250314-10:22:07.268 : 8=FIX.4.4|9=65|35=0|34=33|49=MARKET|52=20250314-10:22:07.267|56=BLZ001|112=TEST|10=087|
20250314-10:22:36.477 : 8=FIX.4.4|9=56|35=0|34=36|49=BLZ001|52=20250314-10:22:36.477|56=MARKET|10=077|
20250314-10:22:37.497 : 8=FIX.4.4|9=56|35=0|34=34|49=MARKET|52=20250314-10:22:37.496|56=BLZ001|10=077|
20250314-10:23:06.818 : 8=FIX.4.4|9=56|35=0|34=37|49=BLZ001|52=20250314-10:23:06.818|56=MARKET|10=075|
20250314-10:23:07.832 : 8=FIX.4.4|9=56|35=0|34=35|49=MARKET|52=20250314-10:23:07.831|56=BLZ001|10=069|
20250314-10:23:37.106 : 8=FIX.4.4|9=56|35=0|34=38|49=BLZ001|52=20250314-10:23:37.106|56=MARKET|10=070|
20250314-10:23:38.122 : 8=FIX.4.4|9=56|35=0|34=36|49=MARKET|52=20250314-10:23:38.122|56=BLZ001|10=067|
20250314-10:24:07.340 : 8=FIX.4.4|9=56|35=0|34=39|49=BLZ001|52=20250314-10:24:07.340|56=MARKET|10=069|
20250314-10:24:08.350 : 8=FIX.4.4|9=56|35=0|34=37|49=MARKET|52=20250314-10:24:08.350|56=BLZ001|10=069|
20250314-10:24:37.631 : 8=FIX.4.4|9=56|35=0|34=40|49=BLZ001|52=20250314-10:24:37.631|56=MARKET|10=067|
20250314-10:24:38.643 : 8=FIX.4.4|9=56|35=0|34=38|49=MARKET|52=20250314-10:24:38.643|56=BLZ001|10=078|
20250314-10:25:07.905 : 8=FIX.4.4|9=56|35=0|34=41|49=BLZ001|52=20250314-10:25:07.905|56=MARKET|10=070|
20250314-10:25:08.921 : 8=FIX.4.4|9=56|35=0|34=39|49=MARKET|52=20250314-10:25:08.920|56=BLZ001|10=075|
20250314-10:25:38.143 : 8=FIX.4.4|9=56|35=0|34=42|49=BLZ001|52=20250314-10:25:38.143|56=MARKET|10=069|
20250314-10:25:39.155 : 8=FIX.4.4|9=56|35=0|34=40|49=MARKET|52=20250314-10:25:39.154|56=BLZ001|10=070|
20250314-10:26:08.402 : 8=FIX.4.4|9=56|35=0|34=43|49=BLZ001|52=20250314-10:26:08.402|56=MARKET|10=066|
20250314-10:26:09.404 : 8=FIX.4.4|9=56|35=0|34=41|49=MARKET|52=20250314-10:26:09.404|56=BLZ001|10=067|
20250314-10:26:38.658 : 8=FIX.4.4|9=56|35=0|34=44|49=BLZ001|52=20250314-10:26:38.658|56=MARKET|10=083|
20250314-10:26:39.672 : 8=FIX.4.4|9=56|35=0|34=42|49=MARKET|52=20250314-10:26:39.672|56=BLZ001|10=078|
20250314-10:49:43.286 : 8=FIX.4.4|9=68|35=A|34=45|49=BLZ001|52=20250314-10:49:43.286|56=MARKET|98=0|108=30|10=127|
20250314-10:49:43.318 : 8=FIX.4.4|9=68|35=A|34=43|49=MARKET|52=20250314-10:49:43.314|56=BLZ001|98=0|108=30|10=117|
20250314-10:50:13.605 : 8=FIX.4.4|9=56|35=0|34=46|49=BLZ001|52=20250314-10:50:13.605|56=MARKET|10=067|
20250314-10:50:13.606 : 8=FIX.4.4|9=56|35=0|34=44|49=MARKET|52=20250314-10:50:13.606|56=BLZ001|10=066|
20250314-10:50:30.069 : 8=FIX.4.4|9=68|35=A|34=47|49=BLZ001|52=20250314-10:50:30.058|56=MARKET|98=0|108=30|10=114|
20250314-10:50:30.079 : 8=FIX.4.4|9=68|35=A|34=45|49=MARKET|52=20250314-10:50:30.070|56=BLZ001|98=0|108=30|10=106|
20250314-10:50:45.349 : 8=FIX.4.4|9=150|35=D|34=48|49=BLZ001|52=20250314-10:50:45.347|56=MARKET|11=f1507882-3c33-4015-8246-341bc19adfd6|38=1|40=1|44=3|54=2|55=PETR4|60=20250314-10:50:45.345|10=032|
20250314-10:50:45.593 : 8=FIX.4.4|9=176|35=8|34=46|49=MARKET|52=20250314-10:50:45.592|56=BLZ001|6=0|14=0|17=d803220d-50cc-4629-a56b-b06bbfcda62b|37=c55026a6-9c22-4c6f-a64d-c12b2677928d|39=0|54=1|55=PETR4|150=8|151=1|10=252|
20250314-10:50:59.797 : 8=FIX.4.4|9=150|35=D|34=49|49=BLZ001|52=20250314-10:50:59.796|56=MARKET|11=6a97802b-d355-4659-9c74-a7a0f23d493c|38=1|40=1|44=3|54=2|55=PETR4|60=20250314-10:50:59.796|10=128|
20250314-10:51:21.876 : 8=FIX.4.4|9=65|35=1|34=50|49=BLZ001|52=20250314-10:51:21.875|56=MARKET|112=TEST|10=090|
20250314-10:51:26.212 : 8=FIX.4.4|9=56|35=0|34=47|49=MARKET|52=20250314-10:51:26.212|56=BLZ001|10=067|
20250314-10:51:26.213 : 8=FIX.4.4|9=65|35=0|34=48|49=MARKET|52=20250314-10:51:26.213|56=BLZ001|112=TEST|10=087|
20250314-10:51:37.259 : 8=FIX.4.4|9=176|35=8|34=49|49=MARKET|52=20250314-10:51:37.258|56=BLZ001|6=0|14=0|17=c3743a39-1524-4b39-9d8a-56149520aa45|37=0626211a-b059-4a60-9d5c-e1b802830f63|39=0|54=1|55=PETR4|150=8|151=1|10=083|
20250314-10:51:52.382 : 8=FIX.4.4|9=56|35=0|34=51|49=BLZ001|52=20250314-10:51:52.382|56=MARKET|10=069|
20250314-10:52:07.509 : 8=FIX.4.4|9=56|35=0|34=50|49=MARKET|52=20250314-10:52:07.508|56=BLZ001|10=069|
20250314-10:52:22.651 : 8=FIX.4.4|9=56|35=0|34=52|49=BLZ001|52=20250314-10:52:22.650|56=MARKET|10=066|
20250314-10:52:37.773 : 8=FIX.4.4|9=56|35=0|34=51|49=MARKET|52=20250314-10:52:37.772|56=BLZ001|10=076|
20250314-10:52:45.902 : 8=FIX.4.4|9=150|35=D|34=53|49=BLZ001|52=20250314-10:52:45.902|56=MARKET|11=c673f396-cbe2-4a8c-88d4-b69763fe568a|38=1|40=1|44=3|54=2|55=PETR4|60=20250314-10:52:45.902|10=000|
20250314-10:52:48.720 : 8=FIX.4.4|9=176|35=8|34=52|49=MARKET|52=20250314-10:52:48.720|56=BLZ001|6=0|14=0|17=2e5279f1-1f26-491d-927a-ed9c7138421c|37=1a45e3bf-1fad-4c5c-b1ca-44800970d79c|39=0|54=1|55=PETR4|150=8|151=1|10=218|
20250314-11:56:54.466 : 8=FIX.4.4|9=68|35=A|34=54|49=BLZ001|52=20250314-11:56:54.453|56=MARKET|98=0|108=30|10=124|
20250314-11:56:54.501 : 8=FIX.4.4|9=68|35=A|34=53|49=MARKET|52=20250314-11:56:54.494|56=BLZ001|98=0|108=30|10=128|
20250314-11:56:54.509 : 8=FIX.4.4|9=66|35=2|34=55|49=BLZ001|52=20250314-11:56:54.509|56=MARKET|7=52|16=0|10=006|
20250314-11:56:54.513 : 8=FIX.4.4|9=207|35=8|34=52|43=Y|49=MARKET|52=20250314-11:56:54.511|56=BLZ001|122=20250314-10:52:48.720|6=0|14=0|17=2e5279f1-1f26-491d-927a-ed9c7138421c|37=1a45e3bf-1fad-4c5c-b1ca-44800970d79c|39=0|54=1|55=PETR4|150=8|151=1|10=211|
20250314-11:59:04.303 : 8=FIX.4.4|9=68|35=A|34=56|49=BLZ001|52=20250314-11:59:04.292|56=MARKET|98=0|108=30|10=125|
20250314-11:59:04.335 : 8=FIX.4.4|9=68|35=A|34=54|49=MARKET|52=20250314-11:59:04.329|56=BLZ001|98=0|108=30|10=124|
20250314-11:59:04.343 : 8=FIX.4.4|9=66|35=2|34=57|49=BLZ001|52=20250314-11:59:04.343|56=MARKET|7=52|16=0|10=002|
20250314-11:59:04.346 : 8=FIX.4.4|9=207|35=8|34=52|43=Y|49=MARKET|52=20250314-11:59:04.345|56=BLZ001|122=20250314-10:52:48.720|6=0|14=0|17=2e5279f1-1f26-491d-927a-ed9c7138421c|37=1a45e3bf-1fad-4c5c-b1ca-44800970d79c|39=0|54=1|55=PETR4|150=8|151=1|10=214|
20250314-12:01:16.212 : 8=FIX.4.4|9=68|35=A|34=58|49=BLZ001|52=20250314-12:01:16.201|56=MARKET|98=0|108=30|10=108|
20250314-12:01:16.223 : 8=FIX.4.4|9=68|35=A|34=55|49=MARKET|52=20250314-12:01:16.214|56=BLZ001|98=0|108=30|10=109|
20250314-12:01:16.239 : 8=FIX.4.4|9=66|35=2|34=59|49=BLZ001|52=20250314-12:01:16.239|56=MARKET|7=52|16=0|10=255|
20250314-12:01:16.241 : 8=FIX.4.4|9=207|35=8|34=52|43=Y|49=MARKET|52=20250314-12:01:16.240|56=BLZ001|122=20250314-10:52:48.720|6=0|14=0|17=2e5279f1-1f26-491d-927a-ed9c7138421c|37=1a45e3bf-1fad-4c5c-b1ca-44800970d79c|39=0|54=1|55=PETR4|150=8|151=1|10=199|
20250314-12:01:19.854 : 8=FIX.4.4|9=99|35=4|34=53|43=Y|49=MARKET|52=20250314-12:01:16.241|56=BLZ001|122=20250314-12:01:16.241|36=56|123=Y|10=123|
20250314-12:01:46.442 : 8=FIX.4.4|9=56|35=0|34=56|49=MARKET|52=20250314-12:01:46.441|56=BLZ001|10=070|
20250314-12:01:46.443 : 8=FIX.4.4|9=56|35=0|34=60|49=BLZ001|52=20250314-12:01:46.443|56=MARKET|10=067|
20250314-12:03:02.087 : 8=FIX.4.4|9=68|35=A|34=61|49=BLZ001|52=20250314-12:03:02.075|56=MARKET|98=0|108=30|10=108|
20250314-12:03:02.125 : 8=FIX.4.4|9=68|35=A|34=57|49=MARKET|52=20250314-12:03:02.118|56=BLZ001|98=0|108=30|10=111|
20250314-12:04:03.210 : 8=FIX.4.4|9=68|35=A|34=62|49=BLZ001|52=20250314-12:04:03.194|56=MARKET|98=0|108=30|10=113|
20250314-12:04:03.234 : 8=FIX.4.4|9=68|35=A|34=58|49=MARKET|52=20250314-12:04:03.213|56=BLZ001|98=0|108=30|10=110|
20250314-12:04:33.415 : 8=FIX.4.4|9=56|35=0|34=59|49=MARKET|52=20250314-12:04:33.415|56=BLZ001|10=073|
20250314-12:04:33.416 : 8=FIX.4.4|9=56|35=0|34=63|49=BLZ001|52=20250314-12:04:33.416|56=MARKET|10=069|
20250314-12:05:09.593 : 8=FIX.4.4|9=68|35=A|34=64|49=BLZ001|52=20250314-12:05:09.581|56=MARKET|98=0|108=30|10=122|
20250314-12:05:09.602 : 8=FIX.4.4|9=68|35=A|34=60|49=MARKET|52=20250314-12:05:09.594|56=BLZ001|98=0|108=30|10=122|
20250314-12:05:21.734 : 8=FIX.4.4|9=145|35=D|34=65|49=BLZ001|52=20250314-12:05:21.733|56=MARKET|11=7bc80694-68a1-4120-a5ae-ef0811115065|38=0|40=1|44=0|54=2|55=|60=20250314-12:05:21.731|10=156|
20250314-12:05:21.742 : 8=FIX.4.4|9=114|35=3|34=61|49=MARKET|52=20250314-12:05:21.740|56=BLZ001|45=65|58=Tag specified without a value|371=55|372=D|373=4|10=118|
20250314-12:05:45.937 : 8=FIX.4.4|9=65|35=1|34=62|49=MARKET|52=20250314-12:05:45.936|56=BLZ001|112=TEST|10=098|
20250314-12:05:45.938 : 8=FIX.4.4|9=65|35=0|34=66|49=BLZ001|52=20250314-12:05:45.938|56=MARKET|112=TEST|10=103|
20250314-12:06:16.171 : 8=FIX.4.4|9=56|35=0|34=67|49=BLZ001|52=20250314-12:06:16.171|56=MARKET|10=074|
20250314-12:06:16.171 : 8=FIX.4.4|9=56|35=0|34=63|49=MARKET|52=20250314-12:06:16.170|56=BLZ001|10=069|
20250314-12:06:46.380 : 8=FIX.4.4|9=56|35=0|34=64|49=MARKET|52=20250314-12:06:46.379|56=BLZ001|10=084|
20250314-12:06:46.380 : 8=FIX.4.4|9=56|35=0|34=68|49=BLZ001|52=20250314-12:06:46.380|56=MARKET|10=080|
20250314-12:07:16.640 : 8=FIX.4.4|9=56|35=0|34=65|49=MARKET|52=20250314-12:07:16.639|56=BLZ001|10=082|
20250314-12:07:16.641 : 8=FIX.4.4|9=56|35=0|34=69|49=BLZ001|52=20250314-12:07:16.640|56=MARKET|10=078|
20250314-12:07:46.893 : 8=FIX.4.4|9=56|35=0|34=70|49=BLZ001|52=20250314-12:07:46.892|56=MARKET|10=082|
20250314-12:07:46.893 : 8=FIX.4.4|9=56|35=0|34=66|49=MARKET|52=20250314-12:07:46.892|56=BLZ001|10=087|
20250314-12:08:46.403 : 8=FIX.4.4|9=68|35=A|34=71|49=BLZ001|52=20250314-12:08:46.391|56=MARKET|98=0|108=30|10=123|
20250314-12:08:46.413 : 8=FIX.4.4|9=68|35=A|34=67|49=MARKET|52=20250314-12:08:46.404|56=BLZ001|98=0|108=30|10=123|
20250314-12:08:58.371 : 8=FIX.4.4|9=145|35=D|34=72|49=BLZ001|52=20250314-12:08:58.370|56=MARKET|11=7f63fc59-2299-48af-bfec-8f81f2c0e8b4|38=0|40=1|44=0|54=2|55=|60=20250314-12:08:58.368|10=001|
20250314-12:08:58.373 : 8=FIX.4.4|9=114|35=3|34=68|49=MARKET|52=20250314-12:08:58.372|56=BLZ001|45=72|58=Tag specified without a value|371=55|372=D|373=4|10=137|
20250314-12:09:22.559 : 8=FIX.4.4|9=65|35=1|34=69|49=MARKET|52=20250314-12:09:22.559|56=BLZ001|112=TEST|10=105|
20250314-12:09:22.560 : 8=FIX.4.4|9=65|35=0|34=73|49=BLZ001|52=20250314-12:09:22.560|56=MARKET|112=TEST|10=091|
20250314-12:09:29.824 : 8=FIX.4.4|9=68|35=A|34=74|49=BLZ001|52=20250314-12:09:29.813|56=MARKET|98=0|108=30|10=127|
20250314-12:09:29.830 : 8=FIX.4.4|9=68|35=A|34=70|49=MARKET|52=20250314-12:09:29.826|56=BLZ001|98=0|108=30|10=127|
20250314-12:09:40.802 : 8=FIX.4.4|9=145|35=D|34=75|49=BLZ001|52=20250314-12:09:40.801|56=MARKET|11=0550e16c-3ad0-4e64-9817-74fadcd90988|38=0|40=1|44=0|54=2|55=|60=20250314-12:09:40.799|10=044|
20250314-12:09:40.803 : 8=FIX.4.4|9=114|35=3|34=71|49=MARKET|52=20250314-12:09:40.803|56=BLZ001|45=75|58=Tag specified without a value|371=55|372=D|373=4|10=125|
20250314-12:10:17.618 : 8=FIX.4.4|9=68|35=A|34=76|49=BLZ001|52=20250314-12:10:17.606|56=MARKET|98=0|108=30|10=118|
20250314-12:10:17.628 : 8=FIX.4.4|9=68|35=A|34=72|49=MARKET|52=20250314-12:10:17.619|56=BLZ001|98=0|108=30|10=118|
20250314-12:10:47.887 : 8=FIX.4.4|9=56|35=0|34=73|49=MARKET|52=20250314-12:10:47.887|56=BLZ001|10=084|
20250314-12:10:47.889 : 8=FIX.4.4|9=56|35=0|34=77|49=BLZ001|52=20250314-12:10:47.888|56=MARKET|10=089|
20250314-12:11:21.769 : 8=FIX.4.4|9=68|35=A|34=78|49=BLZ001|52=20250314-12:11:21.759|56=MARKET|98=0|108=30|10=125|
20250314-12:11:21.780 : 8=FIX.4.4|9=68|35=A|34=74|49=MARKET|52=20250314-12:11:21.770|56=BLZ001|98=0|108=30|10=114|
20250314-12:11:51.983 : 8=FIX.4.4|9=56|35=0|34=79|49=BLZ001|52=20250314-12:11:51.983|56=MARKET|10=083|
20250314-12:11:51.986 : 8=FIX.4.4|9=56|35=0|34=75|49=MARKET|52=20250314-12:11:51.984|56=BLZ001|10=080|
20250314-12:12:01.598 : 8=FIX.4.4|9=68|35=A|34=80|49=BLZ001|52=20250314-12:12:01.587|56=MARKET|98=0|108=30|10=116|
20250314-12:12:01.608 : 8=FIX.4.4|9=68|35=A|34=76|49=MARKET|52=20250314-12:12:01.599|56=BLZ001|98=0|108=30|10=124|
20250314-12:26:59.612 : 8=FIX.4.4|9=68|35=A|34=81|49=BLZ001|52=20250314-12:26:59.600|56=MARKET|98=0|108=30|10=121|
20250314-12:27:52.944 : 8=FIX.4.4|9=68|35=A|34=82|49=BLZ001|52=20250314-12:27:52.934|56=MARKET|98=0|108=30|10=126|
20250314-12:59:17.426 : 8=FIX.4.4|9=68|35=A|34=83|49=BLZ001|52=20250314-12:59:17.415|56=MARKET|98=0|108=30|10=127|
20250314-12:59:17.459 : 8=FIX.4.4|9=68|35=A|34=92|49=MARKET|52=20250314-12:59:17.453|56=BLZ001|98=0|108=30|10=129|
20250314-12:59:17.469 : 8=FIX.4.4|9=66|35=2|34=84|49=BLZ001|52=20250314-12:59:17.468|56=MARKET|7=77|16=0|10=022|
20250314-12:59:17.470 : 8=FIX.4.4|9=66|35=2|34=93|49=MARKET|52=20250314-12:59:17.458|56=BLZ001|7=81|16=0|10=016|
20250314-12:59:17.473 : 8=FIX.4.4|9=99|35=4|34=81|43=Y|49=BLZ001|52=20250314-12:59:17.473|56=MARKET|122=20250314-12:59:17.472|36=85|123=Y|10=167|
20250314-12:59:47.711 : 8=FIX.4.4|9=56|35=0|34=85|49=BLZ001|52=20250314-12:59:47.711|56=MARKET|10=086|
20250314-12:59:53.744 : 8=FIX.4.4|9=65|35=1|34=86|49=BLZ001|52=20250314-12:59:53.743|56=MARKET|112=TEST|10=108|
20250314-13:00:00.376 : 8=FIX.4.4|9=65|35=1|34=94|49=MARKET|52=20250314-13:00:00.373|56=BLZ001|112=TEST|10=085|
20250314-13:00:00.386 : 8=FIX.4.4|9=99|35=4|34=77|43=Y|49=MARKET|52=20250314-13:00:00.384|56=BLZ001|122=20250314-13:00:00.384|36=95|123=Y|10=134|
20250314-13:00:00.388 : 8=FIX.4.4|9=65|35=0|34=95|49=MARKET|52=20250314-13:00:00.388|56=BLZ001|112=TEST|10=091|
20250314-13:00:23.464 : 8=FIX.4.4|9=68|35=A|34=87|49=BLZ001|52=20250314-13:00:23.452|56=MARKET|98=0|108=30|10=116|
20250314-13:00:23.484 : 8=FIX.4.4|9=68|35=A|34=96|49=MARKET|52=20250314-13:00:23.466|56=BLZ001|98=0|108=30|10=121|
20250314-13:00:34.081 : 8=FIX.4.4|9=150|35=D|34=88|49=BLZ001|52=20250314-13:00:34.080|56=MARKET|11=91cbc3d6-66b6-461f-8330-9cc4ffd45bfb|38=1|40=1|44=3|54=1|55=PETR4|60=20250314-13:00:34.078|10=069|
20250314-13:00:34.530 : 8=FIX.4.4|9=176|35=8|34=97|49=MARKET|52=20250314-13:00:34.528|56=BLZ001|6=0|14=0|17=f5ef7e6d-23e2-44c6-b564-9c6d099235cf|37=5273ee00-e6d1-4b9e-b120-7665db07c74d|39=0|54=1|55=PETR4|150=8|151=1|10=241|
20250314-13:18:42.069 : 8=FIX.4.4|9=68|35=A|34=89|49=BLZ001|52=20250314-13:18:42.044|56=MARKET|98=0|108=30|10=125|
20250314-13:18:42.128 : 8=FIX.4.4|9=68|35=A|34=98|49=MARKET|52=20250314-13:18:42.117|56=BLZ001|98=0|108=30|10=126|
20250314-13:18:54.604 : 8=FIX.4.4|9=150|35=D|34=90|49=BLZ001|52=20250314-13:18:54.602|56=MARKET|11=943f93d0-0449-4b50-b40d-d8a95ca32081|38=1|40=1|44=3|54=1|55=PETR4|60=20250314-13:18:54.601|10=077|
20250314-13:18:55.028 : 8=FIX.4.4|9=176|35=8|34=99|49=MARKET|52=20250314-13:18:55.026|56=BLZ001|6=0|14=0|17=3ebd57ae-0435-419b-b5ed-f2b8a73850fe|37=0bcbb1fc-5cd6-4f84-ad5c-d3d11db364ba|39=0|54=1|55=PETR4|150=8|151=1|10=132|
20250314-13:19:25.539 : 8=FIX.4.4|9=56|35=0|34=91|49=BLZ001|52=20250314-13:19:25.539|56=MARKET|10=084|
20250314-13:19:25.541 : 8=FIX.4.4|9=57|35=0|34=100|49=MARKET|52=20250314-13:19:25.541|56=BLZ001|10=117|
20250314-13:26:14.852 : 8=FIX.4.4|9=68|35=A|34=92|49=BLZ001|52=20250314-13:26:14.840|56=MARKET|98=0|108=30|10=121|
20250314-13:26:14.886 : 8=FIX.4.4|9=69|35=A|34=101|49=MARKET|52=20250314-13:26:14.879|56=BLZ001|98=0|108=30|10=173|
20250314-13:26:25.868 : 8=FIX.4.4|9=150|35=D|34=93|49=BLZ001|52=20250314-13:26:25.867|56=MARKET|11=4138cb92-b52a-4172-9acb-4a4dd7d92d02|38=1|40=1|44=1|54=1|55=VALE3|60=20250314-13:26:25.865|10=216|
20250314-13:26:26.109 : 8=FIX.4.4|9=177|35=8|34=102|49=MARKET|52=20250314-13:26:26.107|56=BLZ001|6=0|14=0|17=5077b741-4022-48a9-85b4-ef032243b6c5|37=ff26b2fd-3b3d-47c3-98d6-10bbfd9a020e|39=0|54=1|55=VALE3|150=8|151=1|10=184|
20250314-13:26:59.711 : 8=FIX.4.4|9=68|35=A|34=94|49=BLZ001|52=20250314-13:26:59.700|56=MARKET|98=0|108=30|10=127|
20250314-13:26:59.716 : 8=FIX.4.4|9=69|35=A|34=103|49=MARKET|52=20250314-13:26:59.712|56=BLZ001|98=0|108=30|10=170|
20250314-13:26:59.740 : 8=FIX.4.4|9=67|35=2|34=95|49=BLZ001|52=20250314-13:26:59.740|56=MARKET|7=102|16=0|10=056|
20250314-13:27:06.819 : 8=FIX.4.4|9=208|35=8|34=102|43=Y|49=MARKET|52=20250314-13:27:06.817|56=BLZ001|122=20250314-13:26:26.107|6=0|14=0|17=5077b741-4022-48a9-85b4-ef032243b6c5|37=ff26b2fd-3b3d-47c3-98d6-10bbfd9a020e|39=0|54=1|55=VALE3|150=8|151=1|10=183|
20250314-13:27:10.631 : 8=FIX.4.4|9=101|35=4|34=103|43=Y|49=MARKET|52=20250314-13:27:06.819|56=BLZ001|122=20250314-13:27:06.819|36=104|123=Y|10=023|
20250314-13:27:29.793 : 8=FIX.4.4|9=56|35=0|34=96|49=BLZ001|52=20250314-13:27:29.793|56=MARKET|10=094|
20250314-13:27:38.202 : 8=FIX.4.4|9=57|35=0|34=104|49=MARKET|52=20250314-13:27:36.866|56=BLZ001|10=132|
20250314-13:27:38.207 : 8=FIX.4.4|9=150|35=D|34=97|49=BLZ001|52=20250314-13:27:38.206|56=MARKET|11=f68ddab5-950a-4b23-9353-d4d605e8fcb5|38=1|40=1|44=3|54=1|55=PETR4|60=20250314-13:27:38.204|10=036|
20250314-13:27:38.217 : 8=FIX.4.4|9=177|35=8|34=105|49=MARKET|52=20250314-13:27:38.216|56=BLZ001|6=0|14=0|17=3bf83f56-6040-4144-a77f-e2c474134c40|37=c97b5546-c1d1-4b17-83b6-291f44942d06|39=0|54=1|55=PETR4|150=8|151=1|10=192|
20250314-13:27:47.494 : 8=FIX.4.4|9=150|35=D|34=98|49=BLZ001|52=20250314-13:27:47.493|56=MARKET|11=a7c5dad0-6adf-44cd-953a-d892161efc1f|38=1|40=1|44=3|54=1|55=PETR4|60=20250314-13:27:47.493|10=192|
20250314-13:27:47.500 : 8=FIX.4.4|9=177|35=8|34=106|49=MARKET|52=20250314-13:27:47.499|56=BLZ001|6=0|14=0|17=a8fb7148-e909-4d7a-926f-9ae69a4d17fe|37=c4af3f09-82b9-483a-b520-163ccd4c332e|39=0|54=1|55=PETR4|150=8|151=1|10=144|
20250314-13:27:48.647 : 8=FIX.4.4|9=150|35=D|34=99|49=BLZ001|52=20250314-13:27:48.647|56=MARKET|11=a63513c5-f42c-473e-9f02-fde18f2e9c35|38=1|40=1|44=3|54=1|55=PETR4|60=20250314-13:27:48.647|10=013|
20250314-13:27:48.653 : 8=FIX.4.4|9=177|35=8|34=107|49=MARKET|52=20250314-13:27:48.653|56=BLZ001|6=0|14=0|17=d346312f-00a1-4e1a-8fae-be1f8e56b0dc|37=3828e462-cb0d-4dda-8533-99586d6b31ac|39=0|54=1|55=PETR4|150=8|151=1|10=156|
20250314-13:27:53.072 : 8=FIX.4.4|9=151|35=D|34=100|49=BLZ001|52=20250314-13:27:53.071|56=MARKET|11=1cd368ef-8a8c-4fbe-8e2c-a717847e2818|38=1|40=1|44=3|54=1|55=PETR4|60=20250314-13:27:53.071|10=082|
20250314-13:27:53.078 : 8=FIX.4.4|9=177|35=8|34=108|49=MARKET|52=20250314-13:27:53.077|56=BLZ001|6=0|14=0|17=f1feb4fc-4faa-4c7d-a480-bd00051f6755|37=87ad7c73-0b8c-4867-af64-cf4375162304|39=0|54=1|55=PETR4|150=8|151=1|10=068|
20250314-13:27:54.372 : 8=FIX.4.4|9=151|35=D|34=101|49=BLZ001|52=20250314-13:27:54.371|56=MARKET|11=39a6bfb0-f401-42eb-bda0-b4a98a59274d|38=1|40=1|44=3|54=1|55=PETR4|60=20250314-13:27:54.371|10=105|
20250314-13:27:54.377 : 8=FIX.4.4|9=177|35=8|34=109|49=MARKET|52=20250314-13:27:54.377|56=BLZ001|6=0|14=0|17=eb55ffcf-4ca5-442e-89fe-b012c4d9954a|37=be9e8c24-8e04-434a-b94a-252ea2cad4c0|39=0|54=1|55=PETR4|150=8|151=1|10=054|
20250314-13:27:59.586 : 8=FIX.4.4|9=151|35=D|34=102|49=BLZ001|52=20250314-13:27:59.586|56=MARKET|11=83f718fd-bd36-4334-a5e6-0f38e1a6d0f6|38=1|40=1|44=3|54=1|55=PETR4|60=20250314-13:27:59.586|10=055|
20250314-13:27:59.591 : 8=FIX.4.4|9=177|35=8|34=110|49=MARKET|52=20250314-13:27:59.591|56=BLZ001|6=0|14=0|17=a6305cfb-8ac4-4efb-bd60-012d96b6f5e9|37=af41a496-0113-4d47-b56b-45899d106d69|39=0|54=1|55=PETR4|150=8|151=1|10=026|
20250314-13:28:00.422 : 8=FIX.4.4|9=151|35=D|34=103|49=BLZ001|52=20250314-13:28:00.422|56=MARKET|11=beb633c4-e910-4e2a-872e-0d0168611fd2|38=1|40=1|44=3|54=1|55=PETR4|60=20250314-13:28:00.422|10=197|
20250314-13:28:00.427 : 8=FIX.4.4|9=177|35=8|34=111|49=MARKET|52=20250314-13:28:00.427|56=BLZ001|6=0|14=0|17=2ad128a6-6d78-47ce-aea4-492f25df491b|37=e410e663-bcc6-4330-a19a-b28d9db78760|39=0|54=1|55=PETR4|150=8|151=1|10=057|
20250314-13:28:01.617 : 8=FIX.4.4|9=151|35=D|34=104|49=BLZ001|52=20250314-13:28:01.617|56=MARKET|11=e44a8e23-9f2a-4918-a90b-f6c7b78f7322|38=1|40=1|44=3|54=1|55=PETR4|60=20250314-13:28:01.617|10=239|
20250314-13:28:01.623 : 8=FIX.4.4|9=177|35=8|34=112|49=MARKET|52=20250314-13:28:01.622|56=BLZ001|6=0|14=0|17=5db96e49-749f-4264-b92e-a71b6443a8fe|37=85068934-2543-4140-bfef-e27bbe18e115|39=0|54=1|55=PETR4|150=8|151=1|10=142|
20250314-13:28:08.273 : 8=FIX.4.4|9=151|35=D|34=105|49=BLZ001|52=20250314-13:28:08.273|56=MARKET|11=dd9a31da-7a05-4bc5-a89f-24cfd5153bd0|38=1|40=1|44=3|54=1|55=PETR4|60=20250314-13:28:08.273|10=160|
20250314-13:28:08.279 : 8=FIX.4.4|9=177|35=8|34=113|49=MARKET|52=20250314-13:28:08.278|56=BLZ001|6=0|14=0|17=fbe5291c-c697-47d6-b590-c14d67d8026e|37=4610daa5-6c97-4dbe-a4fa-2c2c46db60f2|39=0|54=1|55=PETR4|150=8|151=1|10=167|
20250314-13:28:38.489 : 8=FIX.4.4|9=57|35=0|34=114|49=MARKET|52=20250314-13:28:38.488|56=BLZ001|10=136|
20250314-13:28:38.489 : 8=FIX.4.4|9=57|35=0|34=106|49=BLZ001|52=20250314-13:28:38.489|56=MARKET|10=138|
20250314-13:29:02.900 : 8=FIX.4.4|9=151|35=D|34=107|49=BLZ001|52=20250314-13:29:02.900|56=MARKET|11=e8b46e17-b82a-444e-bc8c-210b3e910a74|38=1|40=1|44=3|54=1|55=PETR4|60=20250314-13:29:02.900|10=004|
20250314-13:29:02.906 : 8=FIX.4.4|9=177|35=8|34=115|49=MARKET|52=20250314-13:29:02.905|56=BLZ001|6=0|14=0|17=cafb9a4e-4071-41b0-8b6d-536d546b07d3|37=12c6f427-f752-4735-a649-f62f9c6f13b6|39=0|54=1|55=PETR4|150=8|151=1|10=183|
20250314-13:29:05.341 : 8=FIX.4.4|9=151|35=D|34=108|49=BLZ001|52=20250314-13:29:05.341|56=MARKET|11=4766d2dd-d59b-42ae-a582-a4b480c12256|38=1|40=1|44=3|54=1|55=PETR4|60=20250314-13:29:05.341|10=221|
20250314-13:29:05.348 : 8=FIX.4.4|9=177|35=8|34=116|49=MARKET|52=20250314-13:29:05.347|56=BLZ001|6=0|14=0|17=aabdbc6f-6c27-4f68-a12c-6c4be8654db9|37=cd3f49cd-482c-48e1-b803-4739a408b3b9|39=0|54=1|55=PETR4|150=8|151=1|10=222|
20250314-13:29:08.123 : 8=FIX.4.4|9=151|35=D|34=109|49=BLZ001|52=20250314-13:29:08.123|56=MARKET|11=70687eed-545b-43f5-bcad-f4669b01e8d3|38=1|40=1|44=3|54=1|55=PETR4|60=20250314-13:29:08.123|10=081|
20250314-13:29:08.129 : 8=FIX.4.4|9=177|35=8|34=117|49=MARKET|52=20250314-13:29:08.128|56=BLZ001|6=0|14=0|17=d9c6884e-16f1-439d-811e-e0439ba59129|37=50fce359-fcd5-49ee-9c63-4e106f9ff188|39=0|54=1|55=PETR4|150=8|151=1|10=019|
20250314-13:29:08.563 : 8=FIX.4.4|9=151|35=D|34=110|49=BLZ001|52=20250314-13:29:08.563|56=MARKET|11=c8a87228-3cb4-459e-9f4d-ba90f917f443|38=1|40=1|44=3|54=1|55=PETR4|60=20250314-13:29:08.563|10=002|
20250314-13:29:08.568 : 8=FIX.4.4|9=177|35=8|34=118|49=MARKET|52=20250314-13:29:08.568|56=BLZ001|6=0|14=0|17=f0bf8170-5d39-4d6a-99fa-6655bd100183|37=58269757-ef5b-4e22-9e68-225d007ad93c|39=0|54=1|55=PETR4|150=8|151=1|10=116|
20250314-13:29:08.905 : 8=FIX.4.4|9=151|35=D|34=111|49=BLZ001|52=20250314-13:29:08.905|56=MARKET|11=0005b1b5-8fe0-4d7f-a8c1-6e593597f767|38=1|40=1|44=3|54=1|55=PETR4|60=20250314-13:29:08.905|10=205|
20250314-13:29:08.910 : 8=FIX.4.4|9=177|35=8|34=119|49=MARKET|52=20250314-13:29:08.910|56=BLZ001|6=0|14=0|17=b2878752-ddf5-4d08-8580-735d9b96af2b|37=a4eb1892-6ecc-4653-acee-8465d0423289|39=0|54=1|55=PETR4|150=8|151=1|10=213|
20250314-13:29:09.093 : 8=FIX.4.4|9=151|35=D|34=112|49=BLZ001|52=20250314-13:29:09.093|56=MARKET|11=dc5dd3e7-44c9-4523-bd93-319038a16790|38=1|40=1|44=3|54=1|55=PETR4|60=20250314-13:29:09.093|10=148|
20250314-13:29:09.099 : 8=FIX.4.4|9=177|35=8|34=120|49=MARKET|52=20250314-13:29:09.098|56=BLZ001|6=0|14=0|17=a66fb871-467c-4048-ab7f-cff1fc597538|37=8c4f1dfb-de8d-4820-8d5a-29a51f84b236|39=0|54=1|55=PETR4|150=8|151=1|10=147|
20250314-13:29:09.259 : 8=FIX.4.4|9=151|35=D|34=113|49=BLZ001|52=20250314-13:29:09.259|56=MARKET|11=0aeb921f-dd5d-48ec-a53e-27e5082c469b|38=1|40=1|44=3|54=1|55=PETR4|60=20250314-13:29:09.259|10=136|
20250314-13:29:09.265 : 8=FIX.4.4|9=177|35=8|34=121|49=MARKET|52=20250314-13:29:09.264|56=BLZ001|6=0|14=0|17=c597fd6f-65f0-4128-b70c-6f72bd7132ab|37=747fe56c-d22f-4b68-b796-e50589c5c089|39=0|54=1|55=PETR4|150=8|151=1|10=006|
20250314-13:29:09.417 : 8=FIX.4.4|9=151|35=D|34=114|49=BLZ001|52=20250314-13:29:09.417|56=MARKET|11=5d23a860-2845-4a67-aab8-ed562aba178d|38=1|40=1|44=3|54=1|55=PETR4|60=20250314-13:29:09.417|10=027|
20250314-13:29:09.423 : 8=FIX.4.4|9=177|35=8|34=122|49=MARKET|52=20250314-13:29:09.422|56=BLZ001|6=0|14=0|17=ec12741d-389b-447e-a2c6-0a732836a8f0|37=7e2971ba-8f43-4c6c-a349-a7cdc2d4520f|39=0|54=1|55=PETR4|150=8|151=1|10=012|
20250314-13:29:09.573 : 8=FIX.4.4|9=151|35=D|34=115|49=BLZ001|52=20250314-13:29:09.573|56=MARKET|11=0b4d5387-2c54-42f4-b42a-60e729ac78c8|38=1|40=1|44=3|54=1|55=PETR4|60=20250314-13:29:09.573|10=201|
20250314-13:29:09.578 : 8=FIX.4.4|9=177|35=8|34=123|49=MARKET|52=20250314-13:29:09.578|56=BLZ001|6=0|14=0|17=5fcd3481-e1f2-40d7-9f16-752f81d6a1de|37=2c508d63-0f9b-4d43-98af-d677b5460eba|39=0|54=1|55=PETR4|150=8|151=1|10=089|
20250314-13:29:09.733 : 8=FIX.4.4|9=151|35=D|34=116|49=BLZ001|52=20250314-13:29:09.733|56=MARKET|11=063a31a2-4faa-46c5-b290-790ae33dc6f5|38=1|40=1|44=3|54=1|55=PETR4|60=20250314-13:29:09.733|10=019|
20250314-13:29:09.739 : 8=FIX.4.4|9=177|35=8|34=124|49=MARKET|52=20250314-13:29:09.738|56=BLZ001|6=0|14=0|17=c53a4f26-d799-4798-8b87-f975b262296c|37=d3408bf7-6e03-40b9-94f1-ae5550535f18|39=0|54=1|55=PETR4|150=8|151=1|10=040|
20250314-13:29:09.895 : 8=FIX.4.4|9=151|35=D|34=117|49=BLZ001|52=20250314-13:29:09.895|56=MARKET|11=54d2d515-8e80-4c5b-bd0a-993fc5662f47|38=1|40=1|44=3|54=1|55=PETR4|60=20250314-13:29:09.895|10=016|
20250314-13:29:09.901 : 8=FIX.4.4|9=177|35=8|34=125|49=MARKET|52=20250314-13:29:09.900|56=BLZ001|6=0|14=0|17=408dd9ff-a87a-4337-aef8-bdc9bcbd4ada|37=0c58bfb4-5f27-4f34-a810-c5c1b6a1caf5|39=0|54=1|55=PETR4|150=8|151=1|10=233|
20250314-13:29:10.061 : 8=FIX.4.4|9=151|35=D|34=118|49=BLZ001|52=20250314-13:29:10.061|56=MARKET|11=5c7f507b-aa40-48ea-a474-b016c81d2acc|38=1|40=1|44=3|54=1|55=PETR4|60=20250314-13:29:10.061|10=086|
20250314-13:29:10.066 : 8=FIX.4.4|9=177|35=8|34=126|49=MARKET|52=20250314-13:29:10.066|56=BLZ001|6=0|14=0|17=3388f685-c041-4bb1-b6b5-15886f734a3e|37=0182b79a-2fa8-4b94-a31b-266334e08d44|39=0|54=1|55=PETR4|150=8|151=1|10=031|
20250314-13:29:10.229 : 8=FIX.4.4|9=151|35=D|34=119|49=BLZ001|52=20250314-13:29:10.229|56=MARKET|11=5bdce9fb-fdd9-4b8e-b993-33e90cdd553d|38=1|40=1|44=3|54=1|55=PETR4|60=20250314-13:29:10.229|10=027|
20250314-13:29:10.234 : 8=FIX.4.4|9=177|35=8|34=127|49=MARKET|52=20250314-13:29:10.234|56=BLZ001|6=0|14=0|17=bd511a01-8c97-4780-b7da-7f2ee27352ca|37=7298ca35-9331-4b69-87a1-4ece4fdde549|39=0|54=1|55=PETR4|150=8|151=1|10=028|
20250314-13:29:10.383 : 8=FIX.4.4|9=151|35=D|34=120|49=BLZ001|52=20250314-13:29:10.383|56=MARKET|11=84d4fc2f-84db-434b-8fca-243b402a7211|38=1|40=1|44=3|54=1|55=PETR4|60=20250314-13:29:10.383|10=003|
20250314-13:29:10.389 : 8=FIX.4.4|9=177|35=8|34=128|49=MARKET|52=20250314-13:29:10.388|56=BLZ001|6=0|14=0|17=a9cbf10f-6a3a-4e3e-a866-cbb47710107b|37=7936f41d-5895-4c81-be8a-2a7ea02f5ca7|39=0|54=1|55=PETR4|150=8|151=1|10=162|
20250314-13:29:10.533 : 8=FIX.4.4|9=151|35=D|34=121|49=BLZ001|52=20250314-13:29:10.533|56=MARKET|11=138972e3-bf0a-48a0-b91e-a1f8629dafd1|38=1|40=1|44=3|54=1|55=PETR4|60=20250314-13:29:10.533|10=057|
20250314-13:29:10.539 : 8=FIX.4.4|9=177|35=8|34=129|49=MARKET|52=20250314-13:29:10.538|56=BLZ001|6=0|14=0|17=f98521ca-21d9-44d8-8a7a-d3efd1fff339|37=2109ee12-ba3d-4cd1-bdf5-cbc81e65d496|39=0|54=1|55=PETR4|150=8|151=1|10=060|
20250314-13:29:16.941 : 8=FIX.4.4|9=151|35=D|34=122|49=BLZ001|52=20250314-13:29:16.941|56=MARKET|11=f6b3f5c5-0f57-46e7-b144-667b9ebb91d8|38=1|40=1|44=3|54=1|55=PETR4|60=20250314-13:29:16.941|10=050|
20250314-13:29:16.947 : 8=FIX.4.4|9=177|35=8|34=130|49=MARKET|52=20250314-13:29:16.946|56=BLZ001|6=0|14=0|17=1300ed55-28ef-47b1-ac95-ecf9917e618b|37=ad4780c3-603b-4009-9b6f-104281bbdf3f|39=0|54=1|55=PETR4|150=8|151=1|10=019|
20250314-13:29:17.395 : 8=FIX.4.4|9=151|35=D|34=123|49=BLZ001|52=20250314-13:29:17.395|56=MARKET|11=99bec5ac-864a-4fa0-870d-9dd0ec695bde|38=1|40=1|44=3|54=1|55=PETR4|60=20250314-13:29:17.395|10=245|
20250314-13:29:17.400 : 8=FIX.4.4|9=177|35=8|34=131|49=MARKET|52=20250314-13:29:17.400|56=BLZ001|6=0|14=0|17=163c3d90-c8de-4f8c-88ed-8da315a6ab75|37=9f81efd2-8711-419c-80f3-26be5213cb30|39=0|54=1|55=PETR4|150=8|151=1|10=065|
20250314-13:29:17.587 : 8=FIX.4.4|9=151|35=D|34=124|49=BLZ001|52=20250314-13:29:17.587|56=MARKET|11=f9d6b160-f289-4b43-83e8-d32dac5692b4|38=1|40=1|44=3|54=1|55=PETR4|60=20250314-13:29:17.587|10=011|
20250314-13:29:17.592 : 8=FIX.4.4|9=177|35=8|34=132|49=MARKET|52=20250314-13:29:17.591|56=BLZ001|6=0|14=0|17=e9ce55f0-1ad3-4826-b632-8217d74d20ac|37=6682bfb8-e684-4b79-8c63-b08bdef133ae|39=0|54=1|55=PETR4|150=8|151=1|10=080|
20250314-13:29:17.760 : 8=FIX.4.4|9=151|35=D|34=125|49=BLZ001|52=20250314-13:29:17.760|56=MARKET|11=2142cec7-3db3-47d0-a45e-ba3ac88f310b|38=1|40=1|44=3|54=1|55=PETR4|60=20250314-13:29:17.760|10=108|
20250314-13:29:17.765 : 8=FIX.4.4|9=177|35=8|34=133|49=MARKET|52=20250314-13:29:17.764|56=BLZ001|6=0|14=0|17=28d5176e-6bb2-481a-a331-7b4b55ee036a|37=1e6c11ad-a540-47b3-acfc-84ad0caaaffd|39=0|54=1|55=PETR4|150=8|151=1|10=064|
20250314-13:29:17.949 : 8=FIX.4.4|9=151|35=D|34=126|49=BLZ001|52=20250314-13:29:17.949|56=MARKET|11=267f123f-4f0b-4a6b-82ec-d61a296477b8|38=1|40=1|44=3|54=1|55=PETR4|60=20250314-13:29:17.949|10=009|
20250314-13:29:17.955 : 8=FIX.4.4|9=177|35=8|34=134|49=MARKET|52=20250314-13:29:17.954|56=BLZ001|6=0|14=0|17=4d876361-45cb-47f5-8915-c8992dfe7e7e|37=fdc4242a-fc30-4c65-870a-26c90062111d|39=0|54=1|55=PETR4|150=8|151=1|10=156|
20250314-13:29:18.203 : 8=FIX.4.4|9=151|35=D|34=127|49=BLZ001|52=20250314-13:29:18.203|56=MARKET|11=8dd45d51-0a59-46af-ad8f-88d8d5d78c27|38=1|40=1|44=3|54=1|55=PETR4|60=20250314-13:29:18.203|10=095|
20250314-13:29:18.209 : 8=FIX.4.4|9=177|35=8|34=135|49=MARKET|52=20250314-13:29:18.209|56=BLZ001|6=0|14=0|17=1a7475fd-d906-40eb-aec5-c967f5a8c20e|37=8db1dab5-53fa-4ef1-9299-7c972978d18f|39=0|54=1|55=PETR4|150=8|151=1|10=200|
20250314-13:29:18.721 : 8=FIX.4.4|9=151|35=D|34=128|49=BLZ001|52=20250314-13:29:18.721|56=MARKET|11=f543e181-8cef-4258-a2de-6f9ecf98401e|38=1|40=1|44=3|54=1|55=PETR4|60=20250314-13:29:18.721|10=100|
20250314-13:29:18.726 : 8=FIX.4.4|9=177|35=8|34=136|49=MARKET|52=20250314-13:29:18.726|56=BLZ001|6=0|14=0|17=aae6886b-6048-4182-adad-aadef49dc55f|37=21836290-0b73-45fe-99c5-4b7cdfb853b9|39=0|54=1|55=PETR4|150=8|151=1|10=190|
20250314-13:29:18.893 : 8=FIX.4.4|9=151|35=D|34=129|49=BLZ001|52=20250314-13:29:18.893|56=MARKET|11=6c08dc1e-4730-43c5-85e4-1964fb0b824e|38=1|40=1|44=3|54=1|55=PETR4|60=20250314-13:29:18.893|10=215|
20250314-13:29:18.898 : 8=FIX.4.4|9=177|35=8|34=137|49=MARKET|52=20250314-13:29:18.897|56=BLZ001|6=0|14=0|17=7aa9a9c4-4552-4777-a9d4-2112345d23df|37=ef6efee2-fcb9-4282-a089-f9edccb00607|39=0|54=1|55=PETR4|150=8|151=1|10=145|
20250314-13:29:19.075 : 8=FIX.4.4|9=151|35=D|34=130|49=BLZ001|52=20250314-13:29:19.075|56=MARKET|11=6ef36f94-91c0-4ee7-aadb-31109d55ebf9|38=1|40=1|44=3|54=1|55=PETR4|60=20250314-13:29:19.075|10=136|
20250314-13:29:19.079 : 8=FIX.4.4|9=177|35=8|34=138|49=MARKET|52=20250314-13:29:19.079|56=BLZ001|6=0|14=0|17=f6d35dde-ac2d-496b-8f5e-9edb0df15572|37=0d9163dc-1c96-4342-8e54-9185a9a11e17|39=0|54=1|55=PETR4|150=8|151=1|10=096|
20250314-13:29:19.261 : 8=FIX.4.4|9=151|35=D|34=131|49=BLZ001|52=20250314-13:29:19.261|56=MARKET|11=9d265ef0-639f-4c0b-b89d-afdb318591e4|38=1|40=1|44=3|54=1|55=PETR4|60=20250314-13:29:19.261|10=088|
20250314-13:29:19.266 : 8=FIX.4.4|9=177|35=8|34=139|49=MARKET|52=20250314-13:29:19.265|56=BLZ001|6=0|14=0|17=db25d131-b434-4d56-9038-e0ecce28f550|37=f0a9ee19-9980-4a5d-95da-3f8c512ff06b|39=0|54=1|55=PETR4|150=8|151=1|10=083|
20250314-13:29:19.443 : 8=FIX.4.4|9=151|35=D|34=132|49=BLZ001|52=20250314-13:29:19.443|56=MARKET|11=9fb28763-0181-439e-84b6-0f19a0a855cc|38=1|40=1|44=3|54=1|55=PETR4|60=20250314-13:29:19.443|10=151|
20250314-13:29:19.448 : 8=FIX.4.4|9=177|35=8|34=140|49=MARKET|52=20250314-13:29:19.447|56=BLZ001|6=0|14=0|17=e594ee78-b30a-4397-a5f5-9edf6826e31b|37=c9cf77d6-e9e2-4e77-9827-d7c634748294|39=0|54=1|55=PETR4|150=8|151=1|10=252|
20250314-13:29:19.655 : 8=FIX.4.4|9=151|35=D|34=133|49=BLZ001|52=20250314-13:29:19.655|56=MARKET|11=10228481-3658-4a22-8b9e-c31a354d576b|38=1|40=1|44=3|54=1|55=PETR4|60=20250314-13:29:19.655|10=055|
20250314-13:29:19.660 : 8=FIX.4.4|9=177|35=8|34=141|49=MARKET|52=20250314-13:29:19.659|56=BLZ001|6=0|14=0|17=dbf91cf1-ec1e-416d-8b59-b6e9414f5b0f|37=7baefc1d-e482-4c0e-afa0-b00b8ebee8e4|39=0|54=1|55=PETR4|150=8|151=1|10=036|
20250314-13:29:22.065 : 8=FIX.4.4|9=151|35=D|34=134|49=BLZ001|52=20250314-13:29:22.065|56=MARKET|11=fbd29c80-010d-4a43-b9a3-35d5bea69ceb|38=1|40=1|44=3|54=1|55=PETR4|60=20250314-13:29:22.065|10=153|
20250314-13:29:22.070 : 8=FIX.4.4|9=177|35=8|34=142|49=MARKET|52=20250314-13:29:22.069|56=BLZ001|6=0|14=0|17=54a78be2-c618-4648-89e3-cbbbf88ebeee|37=a05ae722-eac7-42c7-95fd-89ffbe538836|39=0|54=1|55=PETR4|150=8|151=1|10=045|
20250314-13:29:22.479 : 8=FIX.4.4|9=151|35=D|34=135|49=BLZ001|52=20250314-13:29:22.479|56=MARKET|11=aecb90f0-8fbc-4529-9f72-c6f00c83566c|38=1|40=1|44=3|54=1|55=PETR4|60=20250314-13:29:22.479|10=098|
20250314-13:29:22.484 : 8=FIX.4.4|9=177|35=8|34=143|49=MARKET|52=20250314-13:29:22.483|56=BLZ001|6=0|14=0|17=210642b8-31f5-4a0f-83d4-66764ba03573|37=b88cdd9b-6870-4742-938f-18496abee92c|39=0|54=1|55=PETR4|150=8|151=1|10=057|
